:100000000C9463000C948B000C948B000C948B006C
:100010000C948B000C948B000C948B000C94CB03F1
:100020000C948B000C948B000C948B000C94EF04BC
:100030000C948B000C948B000C948B000C948B0014
:100040000C94A5040C948B000C9473040C944D0434
:100050000C948B000C948B000C948B000C948B00F4
:100060000C948B000C948B000000000024002700EF
:100070002A0000000000250028002B0002000000DC
:1000800000230026002900040404040404040402DC
:100090000202020202030303030303010204081025
:1000A00020408001020408102001020408102000F2
:1000B0000000080002010000030407000000000027
:1000C00000000000AB0511241FBECFEFD8E0DEBF5B
:1000D000CDBF11E0A0E0B1E0E2E0F1E102C00590A7
:1000E0000D92AA34B107D9F722E0AAE4B1E001C029
:1000F0001D92A233B207E1F710E0C3E6D0E004C0DE
:100100002197FE010E947908C236D107C9F70E94E3
:100110001C060C947F080C9400008F929F92AF9263
:10012000BF92FF920F931F93CF93DF93F0902F0214
:100130002BE02F1508F44CC02091310208E512E0A5
:10014000021B110927FD1395000F111F000F111F2E
:1001500020913002C8E8D0E0C21BD10927FDD39519
:10016000CC0FDD1FCC0FDD1F4E010D2E000CAA0899
:10017000BB089801012E000C440B550B28193909B6
:100180004A095B09DC010E94340824EB30E040E0BE
:1001900050E00E940A08820E931EA41EB51E8C1603
:1001A0009D062CF0E801801691060CF4E4012297DC
:1001B000CC0FDD1F2FB7F8948F2D90E0FC01EE0FD0
:1001C000FF1FE80FF91FEE5FFD4FD283C1832FBFE2
:1001D000DF91CF911F910F91FF90BF90AF909F90B3
:1001E0008F900895AF92BF92CF92DF92EF92FF92DD
:1001F0000F931F93CF93DF936C017B018B01040F4F
:10020000151FEB015E01AE18BF08C017D10759F0EA
:100210006991D601ED91FC910190F081E02DC6012C
:100220000995892B79F7C501DF91CF911F910F9126
:10023000FF90EF90DF90CF90BF90AF900895FC01BA
:10024000538D448D252F30E0842F90E0821B930B3B
:10025000541710F0CF96089501970895FC01918DE1
:10026000828D981761F0A28DAE0FBF2FB11D5D96E4
:100270008C91928D9F5F9F73928F90E008958FEF86
:100280009FEF0895FC01918D828D981731F0828D3A
:10029000E80FF11D858D90E008958FEF9FEF089591
:1002A000FC01918D228D892F90E0805C9F4F821BF5
:1002B00091098F739927089585E691E00E94500176
:1002C00021E0892B09F420E0822F089580E090E05E
:1002D000892B29F00E945C0181110C940000089583
:1002E000FC01A48DA80FB92FB11DA35ABF4F2C91AB
:1002F000848D90E001968F739927848FA689B789A2
:100300002C93A089B1898C91837080648C93938D98
:10031000848D981306C00288F389E02D80818F7D3B
:1003200080830895EF92FF920F931F93CF93DF93F3
:10033000EC0181E0888F9B8D8C8D98131AC0E88921
:10034000F989808185FF15C09FB7F894EE89FF89F0
:100350006083E889F98980818370806480839FBF8E
:1003600081E090E0DF91CF911F910F91FF90EF908E
:100370000895F62E0B8D10E00F5F1F4F0F7311279E
:10038000E02E8C8D8E110CC00FB607FCFACFE889D9
:10039000F989808185FFF5CFCE010E947001F1CFF0
:1003A000EB8DEC0FFD2FF11DE35AFF4FF0829FB74D
:1003B000F8940B8FEA89FB8980818062CFCFCF933D
:1003C000DF93EC01888D8823B9F0AA89BB89E8897D
:1003D000F9898C9185FD03C0808186FD0DC00FB623
:1003E00007FCF7CF8C9185FFF2CF808185FFEDCFA1
:1003F000CE010E947001E9CFDF91CF910895833043
:1004000081F028F4813099F08230A9F00895873086
:10041000A9F08830C9F08430B1F4809180008F7DDC
:1004200003C0809180008F7780938000089584B509
:100430008F7784BD089584B58F7DFBCF8091B00008
:100440008F778093B00008958091B0008F7DF9CFB1
:100450001F93CF93DF93282F30E0F901E155FF4F31
:100460008491F901E556FF4FD491F901E957FF4F07
:10047000C491CC23A9F0162F81110E94FF01EC2F0B
:10048000F0E0EE0FFF1FEE58FF4FA591B4918FB72C
:10049000F894EC91111108C0D095DE23DC938FBF46
:1004A000DF91CF911F910895DE2BF8CFCF93DF938B
:1004B000C7E2D2E060E08E810E94280260E08F8176
:1004C0000E94280261E08E810E94280261E08F81F3
:1004D000DF91CF910C942802CF93DF93C7E2D2E053
:1004E00061E08E810E94280261E08F810E942802D3
:1004F00060E08F810E94280260E08E81DF91CF91C1
:100500000C942802CF93DF9390E0FC01E556FF4F57
:10051000249189579F4FFC0184918823D1F090E06A
:10052000880F991FFC01E859FF4FA591B491FC0178
:10053000EE58FF4FC591D49161110EC09FB7F8944A
:100540008C91E22FE0958E238C932881E223E8831F
:100550009FBFDF91CF9108958FB7F894EC91E22B74
:10056000EC938FBFF6CF0F931F93CF93DF93D82FCA
:10057000C8E060E080912D020E9428020D2F0D2E10
:10058000000C110B61E0D0FF60E080912E020E9410
:10059000280215950795D02F61E080912D020E94C9
:1005A0002802C15031F760E080912D020E9428029C
:1005B00061E080912E020E94280261E080912D026C
:1005C0000E94280260E080912E020E94820283EC49
:1005D00090E00197F1F720912E0230E0F901E1550A
:1005E000FF4F8491F901E556FF4FD491F901E95786
:1005F000FF4FC491CC2381F181110E94FF01EC2FA8
:10060000F0E0EE0FFF1FE358FF4FA591B491EC917E
:10061000ED23C1E0D0E009F4C0E0C1110AC061E0FF
:1006200080912E020E94820260E080912E020E9440
:10063000280203EC10E0C8010197F1F761E0809116
:100640002E020E948202C8010197F1F7CE01DF91CC
:10065000CF911F910F910895C0E0D0E0E0CF3FB758
:10066000F8948091500190915101A0915201B09164
:10067000530126B5A89B05C02F3F19F00196A11D77
:10068000B11D3FBFBA2FA92F982F8827BC01CD01DC
:10069000620F711D811D911D42E0660F771F881F3B
:1006A000991F4A95D1F708958F929F92AF92BF926A
:1006B000CF92DF92EF92FF920E942F034B015C01D9
:1006C00080E2C82E83E0D82EE12CF12C0E942F036B
:1006D000681979098A099B09683E7340810591056B
:1006E000A8F321E0C21AD108E108F10888EE880ECB
:1006F00083E0981EA11CB11CC114D104E104F104D3
:1007000029F7FF90EF90DF90CF90BF90AF909F9030
:100710008F900895CF93DF93FC0101900020E9F7BB
:100720003197AF01481B590BBC0185E691E00E944F
:10073000F200EC0142E050E063E171E085E691E017
:100740000E94F2008C0F9D1FDF91CF910895CF93EF
:10075000DF93D82F80912A02C0E08111C0E80E9467
:100760006C0284E40E94B3020E9456020E946C0252
:100770008D2F806C0E94B3028C2F0E94B3020E94C6
:1007800056020E946C02809129020E94B302DF91FE
:10079000CF910C9456021F920F920FB60F92112414
:1007A0002F933F934F935F936F937F938F939F9379
:1007B000AF93BF93EF93FF938091590190915A01AA
:1007C000A0915B01B0915C01892B8A2B8B2BD1F11D
:1007D00090915401E0915501F09156018081892753
:1007E00080838091590190915A01A0915B01B09151
:1007F0005C01181619061A061B069CF48091590113
:1008000090915A01A0915B01B0915C010197A109FF
:10081000B1098093590190935A01A0935B01B09361
:100820005C01FF91EF91BF91AF919F918F917F916B
:100830006F915F914F913F912F910F900FBE0F904D
:100840001F90189580910001ECE7F0E0E4919FEF94
:1008500090930001E13051F030F0E23069F060E057
:100860000E942802DECF10926E00F9CF90916F00A7
:100870009D7F90936F00F3CF909170009D7F909338
:10088000700091E09093B0009091B100987F9460D7
:100890009093B1001092B300E2CF1F920F920FB667
:1008A0000F9211242F933F934F935F936F937F93F6
:1008B0008F939F93AF93BF93EF93FF9385E691E060
:1008C0000E947001FF91EF91BF91AF919F918F9125
:1008D0007F916F915F914F913F912F910F900FBE3C
:1008E0000F901F9018951F920F920FB60F92112420
:1008F0002F938F939F93EF93FF93E0917501F09166
:1009000076018081E0917B01F0917C0182FD1BC02A
:10091000908180917E018F5F8F7320917F0182177C
:1009200041F0E0917E01F0E0EB59FE4F958F80930E
:100930007E01FF91EF919F918F912F910F900FBEAC
:100940000F901F9018958081F4CF1F920F920FB6D1
:100950000F9211242F933F938F939F93AF93BF9345
:1009600080914C0190914D01A0914E01B0914F01A9
:1009700030914B0123E0230F2D3758F50196A11D2F
:10098000B11D20934B0180934C0190934D01A09396
:100990004E01B0934F018091500190915101A0916F
:1009A0005201B09153010196A11DB11D80935001D8
:1009B00090935101A0935201B0935301BF91AF9115
:1009C0009F918F913F912F910F900FBE0F901F908D
:1009D000189526E8230F0296A11DB11DD2CF1F92B4
:1009E0000F920FB60F9211242F933F934F935F9363
:1009F0006F937F938F939F93AF93BF93CF93DF9327
:100A0000EF93FF9380914A01C0912602D0E087FFC7
:100A100024C0109285001092840080914A018F5F5B
:100A200080934A0180914A01082E000C990B8C1783
:100A30009D0724F480914A018C30C4F18091840098
:100A400090918500049680349C4908F47AC0809186
:100A5000840090918500049676C080914A01082E0A
:100A6000000C990B8C179D07C4F6E0914A018E2F5C
:100A7000EE0F990BFC01EE0FFF1FE80FF91FEE5F61
:100A8000FD4F808186FFC9CFE0914A018E2FEE0F86
:100A9000990BFC01EE0FFF1FE80FF91FEE5FFD4FF2
:100AA000808160E08F730E942802B7CF209184007C
:100AB00030918500E0914A018E2FEE0F990BFC01D9
:100AC000EE0FFF1FE80FF91FEE5FFD4F818192814E
:100AD000820F931F9093890080938800E0914A01D0
:100AE0008E2FEE0F990BFC01EE0FFF1FE80FF91F81
:100AF000EE5FFD4F808186FF11C0E0914A018E2F8D
:100B0000EE0F990BFC01EE0FFF1FE80FF91FEE5FD0
:100B1000FD4F808161E08F730E942802FF91EF9169
:100B2000DF91CF91BF91AF919F918F917F916F9105
:100B30005F914F913F912F910F900FBE0F901F909B
:100B4000189580E49CE990938900809388008FEF4A
:100B500080934A01E3CF109268011092670188EEFA
:100B600093E0A0E0B0E08093690190936A01A093C4
:100B70006B01B0936C0185E091E0909366018093E6
:100B8000650185EC90E0909372018093710184EC93
:100B900090E0909374018093730180EC90E09093C7
:100BA00076018093750181EC90E0909378018093B9
:100BB000770182EC90E090937A018093790186EC42
:100BC00090E090937C0180937B0110927E011092C3
:100BD0007F011092800110928101809126028C3059
:100BE00038F591E0980F9093260280932F0290E0C1
:100BF000FC01EE0FFF1FE80FF91FEE5FFD4F88EBC2
:100C00009BE09283818384E090E090932C02809318
:100C10002B0281E180932D0280E180932E0261E01E
:100C200081E10E94820261E080912E020C94820296
:100C30008FEF80932F02E7CF789484B5826084BDD4
:100C400084B5816084BD85B5826085BD85B58160D0
:100C500085BD80916E00816080936E00109281004E
:100C60008091810082608093810080918100816009
:100C700080938100809180008160809380008091CA
:100C8000B10084608093B1008091B0008160809356
:100C9000B00080917A00846080937A0080917A001D
:100CA000826080937A0080917A00816080937A00DC
:100CB00080917A00806880937A001092C100E09160
:100CC0007501F091760182E08083E0917101F091ED
:100CD00072011082E0917301F09174018FEC8083B6
:100CE00010927D01E0917901F0917A0186E0808394
:100CF000E0917701F0917801808180618083E091BB
:100D00007701F0917801808188608083E09177019C
:100D1000F0917801808180688083E0917701F09183
:100D2000780180818F7D808380912F028C3008F044
:100D300051C061E089E00E94820280912F02282F39
:100D400030E0F901EE0FFF1FE20FF31FEE5FFD4FE2
:100D50009081907C996090831092300210923102C1
:100D60002CE0622F0E946D08829FB001112430E0B8
:100D700020E0AB01420F531FFA01EE0FFF1FE40FFB
:100D8000F51FEE5FFD4F908196FD16C02F5F3F4F20
:100D90002C30310571F781110FC01092800082E074
:100DA000809381001092850010928400B19A809106
:100DB0006F00826080936F00E0912F028E2F90E091
:100DC000FC01EE0FFF1FE80FF91FEE5FFD4F808162
:100DD0008064808380E00E94A70381E00E94A703D3
:100DE00082E00E94A70383E00E94A70380E480932F
:100DF000270280EC809328028FE88093290280915B
:100E00000001883071F18F3F09F442C086E191E022
:100E10000E948A0390E080E00E948D0086E990E0C5
:100E20000E948D0083E291E00E948A030E94540395
:100E300086E990E00E948D0090E080E00E948D00A5
:100E400087E391E00E948A030E945403C0E0D0E04F
:100E50002097F1F30E945C018823D1F30E940000E7
:100E6000F7CFECE7F0E0C491C7FDD0CF61E088E0B8
:100E70000E948202CC2309F47AC0C23009F08FC0EC
:100E80008091B100887F84608093B1008FECAEC008
:100E900088E080930001ECE7F0E0C491CF3F09F4D3
:100EA000B5CFC13021F150F0C23009F43EC0C7FDCA
:100EB000ADCF61E088E00E948202DFCF14BC15BC98
:100EC00084B5826084BD85B5816085BDEFE8F0E0C2
:100ED000E491F0E0EE0FFF1FEE58FF4F85919491E3
:100EE000E3EAF0E0E491E0935801C0E0BFCF109254
:100EF0008000109281008091810088608093810041
:100F000080918100816080938100EFE8F0E0E491BE
:100F1000F0E0EE0FFF1FEE58FF4F85919491E3EA4A
:100F2000F0E0E491E0935701A1CF1092B00010924D
:100F3000B1008091B00082608093B0008091B100D8
:100F400081608093B100EFE8F0E0E491F0E0EE0F13
:100F5000FF1FEE58FF4F8591949190935601809317
:100F60005501E3EAF0E0E491E09354017FCF85B5C9
:100F7000887F836085BD8FEC87BD88E691E0A0E027
:100F8000B0E08093610190936201A0936301B093FC
:100F9000640180916E00826080936E0037CFC13013
:100FA000F1F480918100887F81608093810084E1E9
:100FB00094E3909389008093880088E691E0A0E014
:100FC000B0E080935D0190935E01A0935F01B093C8
:100FD000600180916F00826080936F0017CFC230F4
:100FE00021F0C11113CF84E1C7CF84E18093B30016
:100FF00088E691E0A0E0B0E08093590190935A0117
:10100000A0935B01B0935C0180917000826080933B
:101010007000FCCE052E97FB1EF400940E94210860
:1010200057FD07D00E943C0807FC03D04EF40C94F7
:10103000210850954095309521953F4F4F4F5F4F78
:10104000089590958095709561957F4F8F4F9F4F34
:1010500008950E945E08A59F900DB49F900DA49FD7
:10106000800D911D11240895B7FF0C9429080E944A
:101070002908821B930B0895A1E21A2EAA1BBB1B01
:10108000FD010DC0AA1FBB1FEE1FFF1FA217B30754
:10109000E407F50720F0A21BB30BE40BF50B661F6A
:1010A000771F881F991F1A9469F76095709580952E
:1010B00090959B01AC01BD01CF010895A29FB001A5
:1010C000B39FC001A39F700D811D1124911DB29F7C
:1010D000700D811D1124911D0895991B79E004C0A4
:1010E000991F961708F0961B881F7A95C9F7809567
:1010F0000895EE0FFF1F0590F491E02D0994F894E8
:02110000FFCF1F
:10110200FF000000009201F2001F01DF0150012EDA
:101112000142010D0A0048656C6C6F204D44542158
:10112200212100536572766F203A203135302064D8
:1011320065677265657300536572766F203A203079
:0A11420020646567726565730000A4
:00000001FF
