:100000000C9463000C948B000C948B000C948B006C
:100010000C948B000C948B000C948B000C94420578
:100020000C948B000C948B000C948B000C94660643
:100030000C948B000C948B000C948B000C948B0014
:100040000C941C060C948B000C94EA050C94C405CB
:100050000C948B000C948B000C948B000C948B00F4
:100060000C948B000C948B000000000024002700EF
:100070002A000000000023002600290000000008DC
:10008000000201000003040700000000000000005F
:10009000010204081020408001020408102001021F
:1000A0000408102000000000250028002B00040494
:1000B0000404040404040202020202020303030310
:1000C00003030200220711241FBECFEFD8E0DEBFDA
:1000D000CDBF11E0A0E0B1E0EAE2F3E102C005909B
:1000E0000D92AA3BB107D9F722E0AAEBB1E001C01B
:1000F0001D92A43AB207E1F710E0C3E6D0E004C0D5
:100100002197FE010E948D09C236D107C9F70E94CE
:1001100093070C9493090C9400008F929F92AF92D6
:10012000BF92FF920F931F93CF93DF93F090A102A2
:100130002BE02F1508F44CC02091A30208E512E033
:10014000021B110927FD1395000F111F000F111F2E
:100150002091A202C8E8D0E0C21BD10927FDD395A7
:10016000CC0FDD1FCC0FDD1F4E010D2E000CAA0899
:10017000BB089801012E000C440B550B28193909B6
:100180004A095B09DC010E94480924EB30E040E0A9
:1001900050E00E941E09820E931EA41EB51E8C16EE
:1001A0009D062CF0E801801691060CF4E4012297DC
:1001B000CC0FDD1F2FB7F8948F2D90E0FC01EE0FD0
:1001C000FF1FE80FF91FEC58FD4FD283C1832FBFEB
:1001D000DF91CF911F910F91FF90BF90AF909F90B3
:1001E0008F900895AF92BF92CF92DF92EF92FF92DD
:1001F0000F931F93CF93DF936C017B018B01040F4F
:10020000151FEB015E01AE18BF08C017D10759F0EA
:100210006991D601ED91FC910190F081E02DC6012C
:100220000995892B79F7C501DF91CF911F910F9126
:10023000FF90EF90DF90CF90BF90AF900895FC01BA
:10024000538D448D252F30E0842F90E0821B930B3B
:10025000541710F0CF96089501970895FC01918DE1
:10026000828D981761F0A28DAE0FBF2FB11D5D96E4
:100270008C91928D9F5F9F73928F90E008958FEF86
:100280009FEF0895FC01918D828D981731F0828D3A
:10029000E80FF11D858D90E008958FEF9FEF089591
:1002A000FC01918D228D892F90E0805C9F4F821BF5
:1002B00091098F739927089587ED91E00E9450016D
:1002C00021E0892B09F420E0822F089580E090E05E
:1002D000892B29F00E945C0181110C940000089583
:1002E000FC01A48DA80FB92FB11DA35ABF4F2C91AB
:1002F000848D90E001968F739927848FA689B789A2
:100300002C93A089B1898C91837080648C93938D98
:10031000848D981306C00288F389E02D80818F7D3B
:1003200080830895EF92FF920F931F93CF93DF93F3
:10033000EC0181E0888F9B8D8C8D98131AC0E88921
:10034000F989808185FF15C09FB7F894EE89FF89F0
:100350006083E889F98980818370806480839FBF8E
:1003600081E090E0DF91CF911F910F91FF90EF908E
:100370000895F62E0B8D10E00F5F1F4F0F7311279E
:10038000E02E8C8D8E110CC00FB607FCFACFE889D9
:10039000F989808185FFF5CFCE010E947001F1CFF0
:1003A000EB8DEC0FFD2FF11DE35AFF4FF0829FB74D
:1003B000F8940B8FEA89FB8980818062CFCFCF933D
:1003C000DF93EC01888D8823B9F0AA89BB89E8897D
:1003D000F9898C9185FD03C0808186FD0DC00FB623
:1003E00007FCF7CF8C9185FFF2CF808185FFEDCFA1
:1003F000CE010E947001E9CFDF91CF910895833043
:1004000081F028F4813099F08230A9F00895873086
:10041000A9F08830C9F08430B1F4809180008F7DDC
:1004200003C0809180008F7780938000089584B509
:100430008F7784BD089584B58F7DFBCF8091B00008
:100440008F778093B00008958091B0008F7DF9CFB1
:10045000CF93DF93282F30E0F901E458FF4F8491C8
:10046000F901E057FF4FD491F901E255FF4FC491D4
:10047000CC23A1F081110E94FF01EC2FF0E0EE0FE0
:10048000FF1FEE58FF4FA591B491EC91ED2381E051
:1004900090E009F480E0DF91CF91089580E090E052
:1004A000FACF1F93CF93DF93282F30E0F901E45860
:1004B000FF4F8491F901E057FF4FD491F901E255C4
:1004C000FF4FC491CC23A9F0162F81110E94FF0188
:1004D000EC2FF0E0EE0FFF1FEC55FF4FA591B4910C
:1004E0008FB7F894EC91111108C0D095DE23DC93FE
:1004F0008FBFDF91CF911F910895DE2BF8CFCF935F
:10050000DF93C9E9D2E060E08E810E94510260E091
:100510008F810E94510261E08E810E94510261E050
:100520008F81DF91CF910C945102CF93DF93C9E972
:10053000D2E061E08E810E94510261E08F810E94D1
:10054000510260E08F810E94510260E08E81DF9154
:10055000CF910C945102CF93DF9390E0FC01E057D0
:10056000FF4F249182559F4FFC0184918823C9F04D
:1005700090E0880F991FFC01E859FF4FA591B491B5
:10058000FC01EC55FF4FC591D49161110DC09FB78F
:10059000F8948C91209582238C938881282328833A
:1005A0009FBFDF91CF910895623051F49FB7F894C7
:1005B0003C91822F809583238C93E8812E2BEFCF63
:1005C0008FB7F894EC912E2B2C938FBFEACFCF925C
:1005D000DF92EF92FF921F93CF93DF936B017C0129
:1005E00080910101883051F08F3FF1F0DF91CF9180
:1005F0001F91FF90EF90DF90CF900895E2ECF0E034
:10060000C491C7FDF3CF61E088E00E94AB02CC2328
:1006100009F478C0C23009F09CC08091B100887F95
:1006200084608093B10072C088E080930101E2ECA5
:10063000F0E0C491CF3FD1F2C13021F150F0C2308F
:1006400009F43EC0C7FDD2CF61E088E00E94AB0252
:10065000E1CF14BC15BC84B5826084BD85B58160D2
:1006600085BDE6EBF0E0E491F0E0EE0FFF1FEC5506
:10067000FF4F85919491E8E9F0E0E491E093CA019D
:10068000C0E0C1CF10928000109281008091810063
:1006900088608093810080918100816080938100D7
:1006A000E6EBF0E0E491F0E0EE0FFF1FEC55FF4FBA
:1006B00085919491E8E9F0E0E491E093C901A3CF3A
:1006C0001092B0001092B1008091B00082608093CF
:1006D000B0008091B10081608093B100E6EBF0E062
:1006E000E491F0E0EE0FFF1FEC55FF4F85919491E0
:1006F0009093C8018093C701E8E9F0E0E491E093AA
:10070000C60181CF85B5887F836085BDDFEC10E0B1
:10071000A0EBB4E0A70196010E943D0928EE33E06A
:1007200040E050E00E945009C130F1F0C23081F148
:10073000C1115CCFD7BD2093D3013093D401409336
:10074000D5015093D60180916E00826080936E0037
:100750004DCFC13031F480918100887F81608093DA
:100760008100D4E114E3D4CF8D2F912F9093890091
:10077000809388002093CF013093D0014093D10122
:100780005093D20180916F00826080936F002ECFD2
:10079000D093B3002093CB013093CC014093CD0193
:1007A0005093CE01809170008260809370001ECFC4
:1007B0000F931F93CF93DF93D82FC8E060E0809111
:1007C0009F020E9451020D2F0D2E000C110B61E0B3
:1007D000D0FF60E08091A0020E945102159507951C
:1007E000D02F61E080919F020E945102C15031F7E9
:1007F00060E080919F020E94510261E08091A0021E
:100800000E94510261E080919F020E94510260E0CB
:100810008091A0020E94AB0283EC90E00197F1F777
:100820008091A0020E9428028C0181110AC061E01F
:100830008091A0020E94AB0260E08091A0020E9421
:100840005102C3ECD0E0CE010197F1F761E0809155
:10085000A0020E94AB022197F1F7C8019927DF910E
:10086000CF911F910F910895CF93DF93D82FE62F4B
:100870006F37D9F1603140F50E2E000CFF0BE35AB3
:10088000FE4F808190919C02C0E09111C0E8C80F9A
:100890000E94950284E40E94D8030E947F020E9475
:1008A00095028D2F806C0E94D8038C2F0E94D80354
:1008B0000E947F020E94950280919B020E94D803B1
:1008C000DF91CF910C947F0280ED860F8A3030F457
:1008D0000E2E000CFF0BE35DFE4FD3CFE052EB3545
:1008E00020F4F0E0EE5FFE4FCCCF80E0CBCF3FB7FF
:1008F000F8948091C0019091C101A091C201B09182
:10090000C30126B5A89B05C02F3F19F00196A11D74
:10091000B11D3FBFBA2FA92F982F8827BC01CD0149
:10092000620F711D811D911D42E0660F771F881FA8
:10093000991F4A95D1F708958F929F92AF92BF92D7
:10094000CF92DF92EF92FF926B017C010E947704BD
:100950004B015C01C114D104E104F104B9F00E941F
:100960007704681979098A099B09683E73408105F3
:10097000910580F321E0C21AD108E108F10888EE60
:10098000880E83E0981EA11CB11CE4CFFF90EF906D
:10099000DF90CF90BF90AF909F908F900895EF928F
:1009A000FF920F931F93CF93DF937C0110E000E041
:1009B000E70109900020E9F72197CE19DF0980911E
:1009C0009D0290919E020C171D0758F508171907F4
:1009D000F4F064EF71E080E090E00E949C04D0E0CD
:1009E000C0E09E0180919D0290919E022196281761
:1009F0003907A4F4F801EC0FFD1FE81BF90BEE0D0D
:100A0000FF1D60818C2F81500E943404EACFF701D2
:100A1000E00FF11F6081802F0E9434040F5F1F4F91
:100A2000C7CF80919D0290919E02C817D90734F4D8
:100A30006FE78C2F0E9434042196F3CFDF91CF9182
:100A40001F910F91FF90EF900895CF93DF93FC01DA
:100A500001900020E9F73197AF01481B590BBC0109
:100A600087ED91E00E94F200EC0142E050E06FE778
:100A700071E087ED91E00E94F2008C0F9D1FDF91E5
:100A8000CF9108951F920F920FB60F9211242F93BA
:100A90003F934F935F936F937F938F939F93AF9306
:100AA000BF93EF93FF938091CB019091CC01A091E4
:100AB000CD01B091CE01892B8A2B8B2BD1F1909156
:100AC000C601E091C701F091C80180818927808328
:100AD0008091CB019091CC01A091CD01B091CE013C
:100AE000181619061A061B069CF48091CB019091EA
:100AF000CC01A091CD01B091CE010197A109B1091E
:100B00008093CB019093CC01A093CD01B093CE0103
:100B1000FF91EF91BF91AF919F918F917F916F91D5
:100B20005F914F913F912F910F900FBE0F901F90AB
:100B3000189580910101E2ECF0E0E4919FEF909331
:100B40000101E13051F030F0E23069F060E00E94E4
:100B50005102DECF10926E00F9CF90916F009D7F11
:100B600090936F00F3CF909170009D7F90937000F1
:100B700091E09093B0009091B100987F9460909331
:100B8000B1001092B300E2CF1F920F920FB60F92F6
:100B900011242F933F934F935F936F937F938F9382
:100BA0009F93AF93BF93EF93FF9387ED91E00E94E4
:100BB0007001FF91EF91BF91AF919F918F917F91C4
:100BC0006F915F914F913F912F910F900FBE0F90BA
:100BD0001F9018951F920F920FB60F9211242F930A
:100BE0008F939F93EF93FF93E091E701F091E801DA
:100BF0008081E091ED01F091EE0182FD1BC09081BA
:100C00008091F0018F5F8F732091F101821741F085
:100C1000E091F001F0E0E952FE4F958F8093F001F2
:100C2000FF91EF919F918F912F910F900FBE0F9099
:100C30001F9018958081F4CF1F920F920FB60F92DC
:100C400011242F933F938F939F93AF93BF938091E2
:100C5000BC019091BD01A091BE01B091BF01309146
:100C6000BB0123E0230F2D3758F50196A11DB11DBF
:100C70002093BB018093BC019093BD01A093BE0162
:100C8000B093BF018091C0019091C101A091C201B8
:100C9000B091C3010196A11DB11D8093C001909335
:100CA000C101A093C201B093C301BF91AF919F91C5
:100CB0008F913F912F910F900FBE0F901F9018951D
:100CC00026E8230F0296A11DB11DD2CF1F920F92CD
:100CD0000FB60F9211242F933F934F935F936F930F
:100CE0007F938F939F93AF93BF93CF93DF93EF93B4
:100CF000FF938091BA01C0919802D0E087FF24C091
:100D000010928500109284008091BA018F5F8093C9
:100D1000BA018091BA01082E000C990B8C179D071F
:100D200024F48091BA018C30C4F1809184009091B8
:100D30008500049680349C4908F47AC08091840030
:100D400090918500049676C08091BA01082E000C1F
:100D5000990B8C179D07C4F6E091BA018E2FEE0F08
:100D6000990BFC01EE0FFF1FE80FF91FEC58FD4F28
:100D7000808186FFC9CFE091BA018E2FEE0F990BCB
:100D8000FC01EE0FFF1FE80FF91FEC58FD4F8081AB
:100D900060E08F730E945102B7CF209184003091A0
:100DA0008500E091BA018E2FEE0F990BFC01EE0F3A
:100DB000FF1FE80FF91FEC58FD4F81819281820FD0
:100DC000931F9093890080938800E091BA018E2F41
:100DD000EE0F990BFC01EE0FFF1FE80FF91FEC5807
:100DE000FD4F808186FF11C0E091BA018E2FEE0F7A
:100DF000990BFC01EE0FFF1FE80FF91FEC58FD4F98
:100E0000808161E08F730E945102FF91EF91DF9129
:100E1000CF91BF91AF919F918F917F916F915F9192
:100E20004F913F912F910F900FBE0F901F901895EB
:100E300080E49CE990938900809388008FEF8093F1
:100E4000BA01E3CF1092DA011092D90188EE93E053
:100E5000A0E0B0E08093DB019093DC01A093DD0182
:100E6000B093DE0181E791E09093D8018093D701A0
:100E700085EC90E09093E4018093E30184EC90E0B2
:100E80009093E6018093E50180EC90E09093E80177
:100E90008093E70181EC90E09093EA018093E9016F
:100EA00082EC90E09093EC018093EB0186EC90E073
:100EB0009093EE018093ED011092F0011092F101F8
:100EC0001092F2011092F301809198028C3038F563
:100ED00091E0980F909398028093A10290E0FC011A
:100EE000EE0FFF1FE80FF91FEC58FD4F88EB9BE05A
:100EF0009283818384E090E090939E0280939D0290
:100F000081E180939F0280E18093A00261E081E112
:100F10000E94AB0261E08091A0020C94AB028FEFC3
:100F20008093A102E7CF789484B5826084BD84B5B4
:100F3000816084BD85B5826085BD85B5816085BDD4
:100F400080916E00816080936E001092810080918C
:100F50008100826080938100809181008160809314
:100F60008100809180008160809380008091B10039
:100F700084608093B1008091B00081608093B00064
:100F800080917A00846080937A0080917A008260F8
:100F900080937A0080917A00816080937A008091BA
:100FA0007A00806880937A001092C10062E082E04B
:100FB0000E94AB02E091E701F091E80182E08083BA
:100FC000E091E301F091E4011082E091E501F091FC
:100FD000E6018FEC80831092EF01E091EB01F0913C
:100FE000EC0186E08083E091E901F091EA018081E3
:100FF00080618083E091E901F091EA01808188605D
:101000008083E091E901F091EA018081806880832A
:10101000E091E901F091EA0180818F7D80838091E8
:10102000A1028C3008F051C061E089E00E94AB025F
:101030008091A102282F30E0F901EE0FFF1FE20F8F
:10104000F31FEC58FD4F9081907C99609083109233
:10105000A2021092A3022CE0622F0E948109829FBB
:10106000B001112430E020E0AB01420F531FFA0120
:10107000EE0FFF1FE40FF51FEC58FD4F908196FD1A
:1010800016C02F5F3F4F2C30310571F781110FC013
:101090001092800082E0809381001092850010926F
:1010A0008400B19A80916F00826080936F00E0911C
:1010B000A1028E2F90E0FC01EE0FFF1FE80FF91F39
:1010C000EC58FD4F8081806480836FE780E00E9450
:1010D00034046FE781E00E9434046FE782E00E94ED
:1010E00034046FE783E00E94340480E48093990223
:1010F00080EC80939A028FE880939B026CE271E00F
:1011000080E090E00E94E70282E891E00E942505DD
:1011100090E080E00E948D0086E990E00E948D00C2
:101120008FE891E00E94250560E273E080E090E0A6
:101130000E949C0486E990E00E948D0090E080E08F
:101140000E948D0083EA91E00E94250560E273E031
:1011500080E090E00E949C0485EB91E00E94CF0427
:1011600060E273E080E090E00E949C0481E891E0FE
:101170000E94CF0468E572E080E090E00E949C0449
:1011800064EF71E080E090E00E94E70200E010E090
:1011900082E00E942802C1E0892B09F4C0E080911E
:1011A00000018C1728F5E091C401F091C501319739
:1011B000EC30F105A0F4E152F74F0C948D09EB08E7
:1011C000060909090C090F0912090F090C09090977
:1011D0000609EB0815098EE190E00E948D008091D0
:1011E000C4019091C50101969093C5018093C401FB
:1011F000C09300010115110509F4CACF0E945C01DA
:10120000882309F4C5CF0E940000C2CF8CE390E090
:10121000E4CF8AE590E0E1CF88E790E0DECF86E991
:1012200090E0DBCF84EB90E0D8CF90E080E00E94AC
:101230008D001092C5011092C401D1CF052E97FBED
:101240001EF400940E94350957FD07D00E945009F2
:1012500007FC03D04EF40C94350950954095309519
:1012600021953F4F4F4F5F4F089590958095709512
:1012700061957F4F8F4F9F4F08950E947209A59FE0
:10128000900DB49F900DA49F800D911D1124089581
:10129000B7FF0C943D090E943D09821B930B0895F2
:1012A000A1E21A2EAA1BBB1BFD010DC0AA1FBB1F6A
:1012B000EE1FFF1FA217B307E407F50720F0A21BDC
:1012C000B30BE40BF50B661F771F881F991F1A9449
:1012D00069F760957095809590959B01AC01BD0173
:1012E000CF010895A29FB001B39FC001A39F700DCD
:1012F000811D1124911DB29F700D811D1124911D1E
:101300000895991B79E004C0991F961708F0961B61
:10131000881F7A95C9F780950895EE0FFF1F0590F5
:0A132000F491E02D0994F894FFCF3A
:10132A0001FF000000000000000000006300004010
:10133A0000000000000000000000000000000000A3
:10134A00000000777C395E79713576061E7538376C
:10135A00545C737B506D781C3E7E766E1B000000D9
:10136A000108005F7C585E79713574041675383748
:10137A00545C7367506D781C3E2A766E1B3F065B81
:10138A004F666D7D077F6F777C395E79710000004B
:10139A00009201F2001F01DF0150012E0142010DEE
:1013AA000A0048656C6C6F204D445421212100537A
:1013BA006572766F203A2031353020646567726530
:1013CA00657300536572766F203A20302064656732
:0A13DA00726565730030303030009A
:107E0000112484B714BE81FFF0D085E080938100F7
:107E100082E08093C00088E18093C10086E0809377
:107E2000C20080E18093C4008EE0C9D0259A86E02C
:107E300020E33CEF91E0309385002093840096BBD3
:107E4000B09BFECF1D9AA8958150A9F7CC24DD24C4
:107E500088248394B5E0AB2EA1E19A2EF3E0BF2EE7
:107E6000A2D0813461F49FD0082FAFD0023811F036
:107E7000013811F484E001C083E08DD089C08234E0
:107E800011F484E103C0853419F485E0A6D080C0E4
:107E9000853579F488D0E82EFF2485D0082F10E0AE
:107EA000102F00270E291F29000F111F8ED06801E7
:107EB0006FC0863521F484E090D080E0DECF843638
:107EC00009F040C070D06FD0082F6DD080E0C81688
:107ED00080E7D80618F4F601B7BEE895C0E0D1E017
:107EE00062D089930C17E1F7F0E0CF16F0E7DF06D8
:107EF00018F0F601B7BEE89568D007B600FCFDCFD4
:107F0000A601A0E0B1E02C9130E011968C91119780
:107F100090E0982F8827822B932B1296FA010C0160
:107F200087BEE89511244E5F5F4FF1E0A038BF0790
:107F300051F7F601A7BEE89507B600FCFDCF97BE46
:107F4000E89526C08437B1F42ED02DD0F82E2BD052
:107F50003CD0F601EF2C8F010F5F1F4F84911BD097
:107F6000EA94F801C1F70894C11CD11CFA94CF0C13
:107F7000D11C0EC0853739F428D08EE10CD085E9AC
:107F80000AD08FE07ACF813511F488E018D01DD067
:107F900080E101D065CF982F8091C00085FFFCCF94
:107FA0009093C60008958091C00087FFFCCF809118
:107FB000C00084FD01C0A8958091C6000895E0E648
:107FC000F0E098E1908380830895EDDF803219F02E
:107FD00088E0F5DFFFCF84E1DECF1F93182FE3DFCA
:107FE0001150E9F7F2DF1F91089580E0E8DFEE27F6
:047FF000FF270994CA
:027FFE00040479
:0400000300007E007B
:00000001FF
