:100000000C945D000C947A000C947A000C947A00A5
:100010000C947A000C947A000C947A000C947C0076
:100020000C947A000C947A000C947A000C947A0068
:100030000C947A000C947A000C947A000C947A0058
:100040000C943F010C947A000C947A000C947A0082
:100050000C947A000C947A000C947A000C947A0038
:100060000C947A000C947A00000000080002010051
:100070000003040700000000000000000000000072
:10008000240027002A0001020408102040800102F9
:1000900004081020010204081020000000002500C0
:1000A00028002B00040404040404040402020202D5
:1000B0000202030303030303020011241FBECFEF58
:1000C000D8E0DEBFCDBF11E0A0E0B1E0E2E8F5E0AE
:1000D00002C005900D92A230B107D9F721E0A2E04D
:1000E000B1E001C01D92AC31B207E1F70E94890175
:1000F0000C94BF020C9400001F920F920FB60F9247
:1001000011242F933F938F939F93AF93BF93EF93BC
:10011000FF938091100190911101A0911201B09173
:100120001301892B8A2B8B2BB1F190910B01E0915C
:100130000C01F0910D01808189278083809110014D
:1001400090911101A0911201B09113011816190696
:100150001A061B069CF48091100190911101A09148
:100160001201B09113010197A109B1098093100107
:1001700090931101A0931201B0931301FF91EF919D
:10018000BF91AF919F918F913F912F910F900FBE93
:100190000F901F90189580910001E8EBF0E0E4913A
:1001A0009FEF90930001E13009F431C068F1E23033
:1001B00009F433C090E0FC01E859FF4F2491FC01A1
:1001C000EA57FF4F3491FC01EC55FF4FE491EE23C9
:1001D000A9F2222351F0233009F43AC078F52130F6
:1001E00009F43CC0223009F43DC0F0E0EE0FFF1FDF
:1001F000E656FF4FA591B4918FB7F894EC913095E6
:100200003E233C938FBFBACF10926E00D3CF909114
:100210006F009D7F90936F00CDCF909170009D7F78
:100220009093700091E09093B0009091B100987F0E
:1002300094609093B1001092B300BCCF2730A9F026
:100240002830C9F0243089F6809180008F7D03C06A
:10025000809180008F7780938000C7CF84B58F779F
:1002600084BDC3CF84B58F7DFBCF8091B0008F77E5
:100270008093B000BACF8091B0008F7DF9CF1F92EC
:100280000F920FB60F9211242F933F938F939F934A
:10029000AF93BF938091070190910801A09109014C
:1002A000B0910A013091060123E0230F2D3758F554
:1002B0000196A11DB11D2093060180930701909323
:1002C0000801A0930901B0930A0180910201909165
:1002D0000301A0910401B09105010196A11DB11D7A
:1002E0008093020190930301A0930401B093050150
:1002F000BF91AF919F918F913F912F910F900FBE22
:100300000F901F90189526E8230F0296A11DB11D8E
:10031000D2CF789484B5826084BD84B5816084BD79
:1003200085B5826085BD85B5816085BD80916E0093
:10033000816080936E0010928100809181008260C4
:100340008093810080918100816080938100809101
:1003500080008160809380008091B10084608093F0
:10036000B1008091B00081608093B00080917A00EC
:10037000846080937A0080917A00826080937A0012
:1003800080917A00816080937A0080917A00806801
:1003900080937A001092C10080910001883049F06A
:1003A0008F3F69F0C0E0D0E02097F1F30E94000099
:1003B000FBCFE8EBF0E0849187FDF4CF48C088E004
:1003C00080930001E8EBF0E084918F3F59F3813096
:1003D00009F47FC020F1823079F71092B0001092BA
:1003E000B1009091B00092609093B0009091B100F4
:1003F00091609093B100ECEAF0E0E491F0E0EE0F50
:10040000FF1FE656FF4F2591349130930D01209345
:100410000C01EEE8F0E0E491E0930B0118C014BC8D
:1004200015BC84B5826084BD85B5816085BDECEA6C
:10043000F0E0E491F0E0EE0FFF1FE656FF4F8591EC
:100440009491EEE8F0E0E491E0930F0180E0EEE8B3
:10045000F0E09491ECEAF0E02491222399F030E06E
:10046000220F331FF901E458FF4FA591B491F90110
:10047000E656FF4F259134912FB7F894EC91E92B74
:10048000EC932FBF882309F45AC0823009F46FC05F
:10049000813009F03CC080918100887F8160809329
:1004A000810084E194E3909389008093880088E63A
:1004B00091E0A0E0B0E08093140190931501A09327
:1004C0001601B093170180916F00826080936F00D6
:1004D00069CF109280001092810090918100986005
:1004E0009093810090918100916090938100ECEA5B
:1004F000F0E0E491F0E0EE0FFF1FE656FF4F25918C
:100500003491EEE8F0E0E491E0930E01A0CF823068
:1005100009F048CF84E18093B30088E691E0A0E041
:10052000B0E08093100190931101A0931201B09359
:1005300013018091700082608093700033CF85B585
:10054000887F836085BD8FEC87BD88E691E0A0E061
:10055000B0E08093180190931901A0931A01B09311
:100560001B0180916E00826080936E001BCF809192
:10057000B100887F84608093B1008FECCCCFF89479
:02058000FFCFAB
:02058200FF0078
:107E0000112484B714BE81FFF0D085E080938100F7
:107E100082E08093C00088E18093C10086E0809377
:107E2000C20080E18093C4008EE0C9D0259A86E02C
:107E300020E33CEF91E0309385002093840096BBD3
:107E4000B09BFECF1D9AA8958150A9F7CC24DD24C4
:107E500088248394B5E0AB2EA1E19A2EF3E0BF2EE7
:107E6000A2D0813461F49FD0082FAFD0023811F036
:107E7000013811F484E001C083E08DD089C08234E0
:107E800011F484E103C0853419F485E0A6D080C0E4
:107E9000853579F488D0E82EFF2485D0082F10E0AE
:107EA000102F00270E291F29000F111F8ED06801E7
:107EB0006FC0863521F484E090D080E0DECF843638
:107EC00009F040C070D06FD0082F6DD080E0C81688
:107ED00080E7D80618F4F601B7BEE895C0E0D1E017
:107EE00062D089930C17E1F7F0E0CF16F0E7DF06D8
:107EF00018F0F601B7BEE89568D007B600FCFDCFD4
:107F0000A601A0E0B1E02C9130E011968C91119780
:107F100090E0982F8827822B932B1296FA010C0160
:107F200087BEE89511244E5F5F4FF1E0A038BF0790
:107F300051F7F601A7BEE89507B600FCFDCF97BE46
:107F4000E89526C08437B1F42ED02DD0F82E2BD052
:107F50003CD0F601EF2C8F010F5F1F4F84911BD097
:107F6000EA94F801C1F70894C11CD11CFA94CF0C13
:107F7000D11C0EC0853739F428D08EE10CD085E9AC
:107F80000AD08FE07ACF813511F488E018D01DD067
:107F900080E101D065CF982F8091C00085FFFCCF94
:107FA0009093C60008958091C00087FFFCCF809118
:107FB000C00084FD01C0A8958091C6000895E0E648
:107FC000F0E098E1908380830895EDDF803219F02E
:107FD00088E0F5DFFFCF84E1DECF1F93182FE3DFCA
:107FE0001150E9F7F2DF1F91089580E0E8DFEE27F6
:047FF000FF270994CA
:027FFE00040479
:0400000300007E007B
:00000001FF
