:100000000C9463000C948B000C948B000C948B006C
:100010000C948B000C948B000C948B000C94E905D1
:100020000C948B000C948B000C948B000C940D079B
:100030000C948B000C948B000C948B000C948B0014
:100040000C94C3060C948B000C9491060C946B06D4
:100050000C948B000C948B000C948B000C948B00F4
:100060000C948B000C948B000000000024002700EF
:100070002A000000000023002600290000000008DC
:10008000000201000003040700000000000000005F
:10009000010204081020408001020408102001021F
:1000A0000408102000000000250028002B00040494
:1000B0000404040404040202020202020303030310
:1000C00003030200C90711241FBECFEFD8E0DEBF33
:1000D000CDBF11E0A0E0B1E0EEE8F7E102C005908D
:1000E0000D92A23CB107D9F722E0A2ECB1E001C029
:1000F0001D92AA3AB207E1F710E0C3E6D0E004C0CF
:100100002197FE010E94AB0BC236D107C9F70E94AE
:100110003A080C94C50B0C9400008F929F92AF92FA
:10012000BF92FF920F931F93CF93DF93F090A7029C
:100130002BE02F1508F44CC02091A90208E512E02D
:10014000021B110927FD1395000F111F000F111F2E
:100150002091A802C8E8D0E0C21BD10927FDD395A1
:10016000CC0FDD1FCC0FDD1F4E010D2E000CAA0899
:10017000BB089801012E000C440B550B28193909B6
:100180004A095B09DC010E94300A24EB30E040E0C0
:1001900050E00E94060A820E931EA41EB51E8C1605
:1001A0009D062CF0E801801691060CF4E4012297DC
:1001B000CC0FDD1F2FB7F8948F2D90E0FC01EE0FD0
:1001C000FF1FE80FF91FE658FD4FD283C1832FBFF1
:1001D000DF91CF911F910F91FF90BF90AF909F90B3
:1001E0008F900895AF92BF92CF92DF92EF92FF92DD
:1001F0000F931F93CF93DF936C017B018B01040F4F
:10020000151FEB015E01AE18BF08C017D10759F0EA
:100210006991D601ED91FC910190F081E02DC6012C
:100220000995892B79F7C501DF91CF911F910F9126
:10023000FF90EF90DF90CF90BF90AF900895FC01BA
:10024000538D448D252F30E0842F90E0821B930B3B
:10025000541710F0CF96089501970895FC01918DE1
:10026000828D981761F0A28DAE0FBF2FB11D5D96E4
:100270008C91928D9F5F9F73928F90E008958FEF86
:100280009FEF0895FC01918D828D981731F0828D3A
:10029000E80FF11D858D90E008958FEF9FEF089591
:1002A000FC01918D228D892F90E0805C9F4F821BF5
:1002B00091098F73992708958DED91E00E94500167
:1002C00021E0892B09F420E0822F089580E090E05E
:1002D000892B29F00E945C0181110C940000089583
:1002E000FC01A48DA80FB92FB11DA35ABF4F2C91AB
:1002F000848D90E001968F739927848FA689B789A2
:100300002C93A089B1898C91837080648C93938D98
:10031000848D981306C00288F389E02D80818F7D3B
:1003200080830895EF92FF920F931F93CF93DF93F3
:10033000EC0181E0888F9B8D8C8D98131AC0E88921
:10034000F989808185FF15C09FB7F894EE89FF89F0
:100350006083E889F98980818370806480839FBF8E
:1003600081E090E0DF91CF911F910F91FF90EF908E
:100370000895F62E0B8D10E00F5F1F4F0F7311279E
:10038000E02E8C8D8E110CC00FB607FCFACFE889D9
:10039000F989808185FFF5CFCE010E947001F1CFF0
:1003A000EB8DEC0FFD2FF11DE35AFF4FF0829FB74D
:1003B000F8940B8FEA89FB8980818062CFCFCF933D
:1003C000DF93EC01888D8823B9F0AA89BB89E8897D
:1003D000F9898C9185FD03C0808186FD0DC00FB623
:1003E00007FCF7CF8C9185FFF2CF808185FFEDCFA1
:1003F000CE010E947001E9CFDF91CF910895833043
:1004000081F028F4813099F08230A9F00895873086
:10041000A9F08830C9F08430B1F4809180008F7DDC
:1004200003C0809180008F7780938000089584B509
:100430008F7784BD089584B58F7DFBCF8091B00008
:100440008F778093B00008958091B0008F7DF9CFB1
:10045000CF93DF93282F30E0F901E458FF4F8491C8
:10046000F901E057FF4FD491F901E255FF4FC491D4
:10047000CC23A1F081110E94FF01EC2FF0E0EE0FE0
:10048000FF1FEE58FF4FA591B491EC91ED2381E051
:1004900090E009F480E0DF91CF91089580E090E052
:1004A000FACF1F93CF93DF93282F30E0F901E45860
:1004B000FF4F8491F901E057FF4FD491F901E255C4
:1004C000FF4FC491CC23A9F0162F81110E94FF0188
:1004D000EC2FF0E0EE0FFF1FEC55FF4FA591B4910C
:1004E0008FB7F894EC91111108C0D095DE23DC93FE
:1004F0008FBFDF91CF911F910895DE2BF8CFCF935F
:10050000DF93CFE9D2E060E08E810E94510260E08B
:100510008F810E94510261E08E810E94510261E050
:100520008F81DF91CF910C945102CF93DF93CFE96C
:10053000D2E061E08E810E94510261E08F810E94D1
:10054000510260E08F810E94510260E08E81DF9154
:10055000CF910C945102CF93DF9390E0FC01E057D0
:10056000FF4F249182559F4FFC0184918823C9F04D
:1005700090E0880F991FFC01E859FF4FA591B491B5
:10058000FC01EC55FF4FC591D49161110DC09FB78F
:10059000F8948C91209582238C938881282328833A
:1005A0009FBFDF91CF910895623051F49FB7F894C7
:1005B0003C91822F809583238C93E8812E2BEFCF63
:1005C0008FB7F894EC912E2B2C938FBFEACF0F931B
:1005D0001F93CF93DF93D82FC8E060E08091A502EE
:1005E0000E9451020D2F0D2E000C110B61E0D0FF67
:1005F00060E08091A6020E94510215950795D02FC8
:1006000061E08091A5020E945102C15031F760E083
:100610008091A5020E94510261E08091A6020E9491
:10062000510261E08091A5020E94510260E0809138
:10063000A6020E94AB0283EC90E00197F1F7809153
:10064000A6020E9428028C0181110AC061E08091FB
:10065000A6020E94AB0260E08091A6020E945102B5
:10066000C3ECD0E0CE010197F1F761E08091A602E2
:100670000E94AB022197F1F7C8019927DF91CF9132
:100680001F910F910895CF93DF93D82FE62F6F37E7
:10069000D9F1603140F50E2E000CFF0BE15AFE4FF0
:1006A00080819091A202C0E09111C0E8C80F0E9421
:1006B000950284E40E94E7020E947F020E94950254
:1006C0008D2F806C0E94E7028C2F0E94E7020E940F
:1006D0007F020E9495028091A1020E94E702DF91B1
:1006E000CF910C947F0280ED860F8A3030F40E2E6D
:1006F000000CFF0BE15DFE4FD3CFE052EB3520F451
:10070000F0E0EC5FFE4FCCCF80E0CBCF8F929F929A
:10071000AF92BF92CF92DF92EF92FF920F931F930F
:10072000CF938C016A017B0180910301883071F0C5
:100730008F3FA1F1CF911F910F91FF90EF90DF902C
:10074000CF90BF90AF909F908F900895E2ECF0E033
:10075000C491C7FDEFCF61E088E00E94AB02CC23DB
:1007600019F0C23009F089C0980150E040E068E417
:1007700078EE81E090E00E94060A49015A0181E08A
:10078000881A9108A108B108CC2309F4D2C080913D
:10079000B100887F84608093B10087C088E0809337
:1007A0000301E2ECF0E0C491CF3F09F4C3CFC130C4
:1007B00021F150F0C23009F43EC0C7FDBBCF61E06B
:1007C00088E00E94AB02CDCF14BC15BC84B582601A
:1007D00084BD85B5816085BDE6EBF0E0E491F0E095
:1007E000EE0FFF1FEC55FF4F85919491E8E9F0E083
:1007F000E491E093D001C0E0AECF1092800010925F
:1008000081008091810088608093810080918100C7
:10081000816080938100E6EBF0E0E491F0E0EE0F80
:10082000FF1FEC55FF4F85919491E8E9F0E0E491CA
:10083000E093CF0190CF1092B0001092B100809160
:10084000B00082608093B0008091B100816080939D
:10085000B100E6EBF0E0E491F0E0EE0FFF1FEC55A5
:10086000FF4F859194919093CE018093CD01E8E95B
:10087000F0E0E491E093CC016ECF980150E040E0CD
:1008800060E072E18AE790E00E94060A49015A019D
:1008900081E0881A9108A108B108C13031F4809133
:1008A0008100887F816080938100D801AA0FBB1FDF
:1008B000A70196010E94250A28EE33E040E050E0AF
:1008C0000E94380AC13099F0C23019F1C11132CFFB
:1008D00087BC2093D9013093DA014093DB01509318
:1008E000DC0180916E00826080936E0023CF909235
:1008F0008900809288002093D5013093D6014093DF
:10090000D7015093D80180916F00826080936F006F
:1009100011CF8092B3002093D1013093D201409344
:10092000D3015093D4018091700082608093700055
:1009300001CF85B5887F836085BDB7CF3FB7F89479
:100940008091C8019091C901A091CA01B091CB01D9
:1009500026B5A89B05C02F3F19F00196A11DB11D1A
:100960003FBFBA2FA92F982F8827BC01CD01620F56
:10097000711D811D911D42E0660F771F881F991F11
:100980004A95D1F708958F929F92AF92BF92CF92DE
:10099000DF92EF92FF926B017C010E949E044B015B
:1009A0005C01C114D104E104F104B9F00E949E0479
:1009B000681979098A099B09683E73408105910588
:1009C00080F321E0C21AD108E108F10888EE880E10
:1009D00083E0981EA11CB11CE4CFFF90EF90DF9044
:1009E000CF90BF90AF909F908F900895EF92FF921D
:1009F0000F931F93CF93DF937C0110E000E0E7019A
:100A000009900020E9F72197CE19DF098091A30210
:100A10009091A4020C171D0758F508171907F4F058
:100A200064EF71E080E090E00E94C304D0E0C0E099
:100A30009E018091A3029091A40221962817390764
:100A4000A4F4F801EC0FFD1FE81BF90BEE0DFF1DE0
:100A500060818C2F81500E944303EACFF701E00FA1
:100A6000F11F6081802F0E9443030F5F1F4FC7CF8C
:100A70008091A3029091A402C817D90734F46FE7BC
:100A80008C2F0E9443032196F3CFDF91CF911F91CA
:100A90000F91FF90EF900895CF93DF93FC010190A9
:100AA0000020E9F73197AF01481B590BBC018DEDD0
:100AB00091E00E94F200EC0142E050E061E871E058
:100AC0008DED91E00E94F2008C0F9D1FDF91CF9180
:100AD00008954F925F926F927F92AF92BF92CF92A2
:100AE000DF92EF92FF920F931F93CF93DF932B012F
:100AF0003C017C016B01E894F7F820E030E0A901AB
:100B0000C701B6010E94860B20E030E040E05FE3C1
:100B100087FD3CC0C701B6010E946A0A0E94DB0A39
:100B2000EB01F12CE12C9AE0C92ED12C0091A3020B
:100B30001091A402AA24A394B12C20E030E0A901D2
:100B4000C301B2010E94D60A87FD02C0B12CA12CBC
:100B5000C8018A199B09E816F906ECF40E191F0959
:100B6000015011096FE7209729F0CE01B6010E94CC
:100B7000970B682F802F0E944303CE01B6010E947D
:100B8000970BEB018FEFE81AF80AD0CFC701B60137
:100B90000E94690AC3CF20E030E0A901C301B2017D
:100BA0000E94D60A87FF04C06DE280E00E944303E2
:100BB0001092A202DF91CF911F910F91FF90EF90C1
:100BC000DF90CF90BF90AF907F906F905F904F90ED
:100BD00008951F920F920FB60F9211242F933F93F7
:100BE0004F935F936F937F938F939F93AF93BF9335
:100BF000EF93FF938091D1019091D201A091D30105
:100C0000B091D401892B8A2B8B2BD1F19091CC01FF
:100C1000E091CD01F091CE01808189278083809180
:100C2000D1019091D201A091D301B091D4011816B5
:100C300019061A061B069CF48091D1019091D201ED
:100C4000A091D301B091D4010197A109B10980937A
:100C5000D1019093D201A093D301B093D401FF911D
:100C6000EF91BF91AF919F918F917F916F915F9124
:100C70004F913F912F910F900FBE0F901F9018959D
:100C800080910301E2ECF0E0E4919FEF9093030187
:100C9000E13051F030F0E23069F060E00E94510242
:100CA000DECF10926E00F9CF90916F009D7F9093F0
:100CB0006F00F3CF909170009D7F9093700091E052
:100CC0009093B0009091B100987F94609093B100A0
:100CD0001092B300E2CF1F920F920FB60F92112421
:100CE0002F933F934F935F936F937F938F939F9334
:100CF000AF93BF93EF93FF938DED91E00E9470014E
:100D0000FF91EF91BF91AF919F918F917F916F91E3
:100D10005F914F913F912F910F900FBE0F901F90B9
:100D200018951F920F920FB60F9211242F938F9345
:100D30009F93EF93FF93E091ED01F091EE0180819D
:100D4000E091F301F091F40182FD1BC0908180914C
:100D5000F6018F5F8F732091F701821741F0E091C8
:100D6000F601F0E0E352FE4F958F8093F601FF917C
:100D7000EF919F918F912F910F900FBE0F901F9029
:100D800018958081F4CF1F920F920FB60F92112405
:100D90002F933F938F939F93AF93BF938091C40101
:100DA0009091C501A091C601B091C7013091C301D6
:100DB00023E0230F2D3758F50196A11DB11D209377
:100DC000C3018093C4019093C501A093C601B09361
:100DD000C7018091C8019091C901A091CA01B09149
:100DE000CB010196A11DB11D8093C8019093C9014B
:100DF000A093CA01B093CB01BF91AF919F918F9106
:100E00003F912F910F900FBE0F901F90189526E8DD
:100E1000230F0296A11DB11DD2CF1F920F920FB6C4
:100E20000F9211242F933F934F935F936F937F9370
:100E30008F939F93AF93BF93CF93DF93EF93FF93E2
:100E40008091C201C0919E02D0E087FF24C0109221
:100E50008500109284008091C2018F5F8093C2014F
:100E60008091C201082E000C990B8C179D0724F469
:100E70008091C2018C30C4F18091840090918500F2
:100E8000049680349C4908F47AC080918400909143
:100E90008500049676C08091C201082E000C990B43
:100EA0008C179D07C4F6E091C2018E2FEE0F990BAF
:100EB000FC01EE0FFF1FE80FF91FE658FD4F808180
:100EC00086FFC9CFE091C2018E2FEE0F990BFC0176
:100ED000EE0FFF1FE80FF91FE658FD4F808160E01D
:100EE0008F730E945102B7CF20918400309185000A
:100EF000E091C2018E2FEE0F990BFC01EE0FFF1F48
:100F0000E80FF91FE658FD4F81819281820F931FF0
:100F10009093890080938800E091C2018E2FEE0F9C
:100F2000990BFC01EE0FFF1FE80FF91FE658FD4F6C
:100F3000808186FF11C0E091C2018E2FEE0F990BC8
:100F4000FC01EE0FFF1FE80FF91FE658FD4F8081EF
:100F500061E08F730E945102FF91EF91DF91CF9179
:100F6000BF91AF919F918F917F916F915F914F91C1
:100F70003F912F910F900FBE0F901F90189580E416
:100F80009CE990938900809388008FEF8093C20141
:100F9000E3CF1092E0011092DF0188EE93E0A0E031
:100FA000B0E08093E1019093E201A093E301B0935C
:100FB000E40183E791E09093DE018093DD0185EC0D
:100FC00090E09093EA018093E90184EC90E09093A3
:100FD000EC018093EB0180EC90E09093EE01809324
:100FE000ED0181EC90E09093F0018093EF0182ECB1
:100FF00090E09093F2018093F10186EC90E0909361
:10100000F4018093F3011092F6011092F70110920F
:10101000F8011092F90180919E028C3038F591E030
:10102000980F90939E028093A70290E0FC01EE0F30
:10103000FF1FE80FF91FE658FD4F88EB9BE09283F6
:10104000818384E090E09093A4028093A30281E1E5
:101050008093A50280E18093A60261E081E10E9475
:10106000AB0261E08091A6020C94AB028FEF8093FB
:10107000A702E7CF789484B5826084BD84B581608F
:1010800084BD85B5826085BD85B5816085BD809153
:101090006E00816080936E001092810080918100CB
:1010A00082608093810080918100816080938100C3
:1010B000809180008160809380008091B100846085
:1010C0008093B1008091B00081608093B0008091E6
:1010D0007A00846080937A0080917A0082608093A5
:1010E0007A0080917A00816080937A0080917A0002
:1010F000806880937A001092C10062E082E00E94D2
:10110000AB02E091ED01F091EE0182E08083E0918D
:10111000E901F091EA011082E091EB01F091EC011C
:101120008FEC80831092F501E091F101F091F201D2
:1011300086E08083E091EF01F091F0018081806191
:101140008083E091EF01F091F001808188608083DD
:10115000E091EF01F091F001808180688083E0915F
:10116000EF01F091F00180818F7D80838091A70253
:101170008C3008F051C061E089E00E94AB028091A0
:10118000A702282F30E0F901EE0FFF1FE20FF31F37
:10119000E658FD4F9081907C996090831092A80250
:1011A0001092A9022CE0622F0E948B0B829FB0014B
:1011B000112430E020E0AB01420F531FFA01EE0F83
:1011C000FF1FE40FF51FE658FD4F908196FD16C0F6
:1011D0002F5F3F4F2C30310571F781110FC01092F6
:1011E000800082E08093810010928500109284003C
:1011F000B19A80916F00826080936F00E091A702A6
:101200008E2F90E0FC01EE0FFF1FE80FF91FE6584C
:10121000FD4F8081806480836FE780E00E944303FC
:101220006FE781E00E9443036FE782E00E9443037F
:101230006FE783E00E94430380E480939F0280EC89
:101240008093A0028FE88093A1024CE251E060E01D
:1012500070E088E592E00E94860384E891E00E94B5
:101260004C0590E080E00E948D0086E990E00E94AD
:101270008D0081E991E00E944C0560E273E080E01E
:1012800090E00E94C30486E990E00E948D0090E007
:1012900080E00E948D0085EA91E00E944C0560E2AA
:1012A00073E080E090E00E94C30487EB91E00E942D
:1012B000F60460E273E080E090E00E94C30483E8FB
:1012C00091E00E94F60468E572E080E090E00E9400
:1012D000C30444EF51E060E070E088E592E00E94D2
:1012E00086038CEB91E00E94F60400E010E082E0BF
:1012F0000E942802C1E0892B09F4C0E0809102011C
:101300008C1708F033C0E0910001F0910101319792
:10131000EC30F10510F5E157F64F0C94AB0B9B093F
:10132000C409CD09D609DF09E809DF09D609CD09C5
:10133000C4099B09F1098EE190E00E948D0060E0F4
:1013400070E080EF91E40E94690540E253E060E0C4
:1013500070E084E893E00E94860380910001909100
:10136000010101969093010180930001C093020155
:101370000115110509F4BBCF0E945C01882309F413
:10138000B6CF0E940000B3CF8CE390E00E948D00A6
:1013900060E070E080E792E4D6CF8AE590E00E94BA
:1013A0008D0060E070E084EB92E4CDCF88E790E0C0
:1013B0000E948D0060E070E080EF92E4C4CF86E987
:1013C00090E00E948D0060E070E086E193E4BBCF86
:1013D00084EB90E00E948D0060E070E084E393E491
:1013E000B2CF90E080E00E948D008CEB91E00E94F3
:1013F000F60440E253E060E070E084E893E00E948D
:1014000086031092010110920001A7CF052E97FBD1
:101410001EF400940E941D0A57FD07D00E94380A4E
:1014200007FC03D04EF40C941D0A5095409530955E
:1014300021953F4F4F4F5F4F089590958095709540
:1014400061957F4F8F4F9F4F08950E945A0AA59F25
:10145000900DB49F900DA49F800D911D11240895AF
:10146000B7FF0C94250A0E94250A821B930B08954E
:10147000A1E21A2EAA1BBB1BFD010DC0AA1FBB1F98
:10148000EE1FFF1FA217B307E407F50720F0A21B0A
:10149000B30BE40BF50B661F771F881F991F1A9477
:1014A00069F760957095809590959B01AC01BD01A1
:1014B000CF010895A29FB001B39FC001A39F700DFB
:1014C000811D1124911DB29F700D811D1124911D4C
:1014D00008955058BB27AA270E94810A0C944C0BF0
:1014E0000E943E0B38F00E94450B20F039F49F3FDC
:1014F00019F426F40C943B0B0EF4E095E7FB0C94E6
:10150000350BE92F0E945D0B58F3BA17620773077A
:101510008407950720F079F4A6F50C947F0B0EF460
:10152000E0950B2EBA2FA02D0B01B90190010C01F3
:10153000CA01A0011124FF27591B99F0593F50F40B
:10154000503E68F11A16F040A22F232F342F442763
:10155000585FF3CF469537952795A795F04053955B
:10156000C9F77EF41F16BA0B620B730B840BBAF02B
:101570009150A1F0FF0FBB1F661F771F881FC2F796
:101580000EC0BA0F621F731F841F48F487957795AA
:101590006795B795F7959E3F08F0B0CF9395880F64
:1015A00008F09927EE0F9795879508950E94110BE3
:1015B00008F481E008950E94E20A6894B1110C9445
:1015C000800B08950E94650B88F09F5798F0B92F03
:1015D0009927B751B0F0E1F0660F771F881F991F68
:1015E0001AF0BA95C9F714C0B13091F00E947F0B80
:1015F000B1E008950C947F0B672F782F8827B85F90
:1016000039F0B93FCCF3869577956795B395D9F7BF
:101610003EF490958095709561957F4F8F4F9F4FC9
:101620000895990F0008550FAA0BE0E8FEEF161673
:101630001706E807F907C0F012161306E407F507C6
:1016400098F0621B730B840B950B39F40A2661F03A
:10165000232B242B252B21F408950A2609F4A140DD
:10166000A6958FEF811D811D089597F99F6780E8EA
:1016700070E060E008959FEF80EC089500240A94E4
:101680001616170618060906089500240A9412165D
:101690001306140605060895092E0394000C11F490
:1016A000882352F0BB0F40F4BF2B11F460FF04C03D
:1016B0006F5F7F4F8F4F9F4F089557FD9058440F96
:1016C000551F59F05F3F71F04795880F97FB991FA1
:1016D00061F09F3F79F0879508951216130614065E
:1016E000551FF2CF4695F1DF08C0161617061806EB
:1016F000991FF1CF86957105610508940895E894C6
:10170000BB2766277727CB0197F908950E94110B15
:1017100008F48FEF0895991B79E004C0991F96177C
:1017200008F0961B881F7A95C9F78095089597FB56
:10173000072E16F4009407D077FD09D00E94B10B54
:1017400007FC05D03EF4909581959F4F08957095C4
:1017500061957F4F0895EE0FFF1F0590F491E02DE6
:101760000994AA1BBB1B51E107C0AA1FBB1FA617E8
:10177000B70710F0A61BB70B881F991F5A95A9F73A
:0E17800080959095BC01CD010895F894FFCF9F
:10178E00010001FF000000000000000000006300E7
:10179E0000400000000000000000000000000000FB
:1017AE000000000000777C395E79713576061E7573
:1017BE003837545C737B506D781C3E7E766E1B0002
:1017CE0000000108005F7C585E797135740416754F
:1017DE003837545C7367506D781C3E2A766E1B3F0B
:1017EE00065B4F666D7D077F6F777C395E79710082
:1017FE000000009201F2001F01DF0150012E014294
:10180E00010D0A0048656C6C6F204D445421212156
:10181E0000536572766F203A20313530206465674B
:10182E007265657300536572766F203A20302064BE
:10183E0065677265657300303030300020202030CF
:02184E00000098
:00000001FF
