:100000000C9463000C948B000C948B000C948B006C
:100010000C948B000C948B000C948B000C94EE02CF
:100020000C948B000C948B000C948B000C94120499
:100030000C948B000C948B000C948B000C948B0014
:100040000C94C8030C948B000C9496030C947003CE
:100050000C948B000C948B000C948B000C948B00F4
:100060000C948B000C948B000000000024002700EF
:100070002A0000000000250028002B0002000000DC
:1000800000230026002900040404040404040402DC
:100090000202020202030303030303010204081025
:1000A00020408001020408102001020408102000F2
:1000B0000000080002010000030407000000000027
:1000C00000000000CE0411241FBECFEFD8E0DEBF39
:1000D000CDBF11E0A0E0B1E0E0E6FEE002C0059097
:1000E0000D92A432B107D9F722E0A4E2B1E001C039
:1000F0001D92AC30B207E1F710E0C3E6D0E004C0D7
:100100002197FE010E942807C236D107C9F70E9435
:100110003F050C942E070C940000AF92BF92CF9233
:10012000DF92EF92FF920F931F93CF93DF936C01B7
:100130007B018B01040F151FEB015E01AE18BF0898
:10014000C017D10759F06991D601ED91FC9101904A
:10015000F081E02DC6010995892B79F7C501DF9162
:10016000CF911F910F91FF90EF90DF90CF90BF90B4
:10017000AF900895FC01538D448D252F30E0842FDE
:1001800090E0821B930B541710F0CF9608950197BF
:100190000895FC01918D828D981761F0A28DAE0FAC
:1001A000BF2FB11D5D968C91928D9F5F9F73928F33
:1001B00090E008958FEF9FEF0895FC01918D828D5F
:1001C000981731F0828DE80FF11D858D90E008952C
:1001D0008FEF9FEF0895FC01918D228D892F90E084
:1001E000805C9F4F821B91098F73992708958FE33D
:1001F00091E00E94EB0021E0892B09F420E0822F9E
:10020000089580E090E0892B29F00E94F700811189
:100210000C9400000895FC01A48DA80FB92FB11D06
:10022000A35ABF4F2C91848D90E001968F7399272C
:10023000848FA689B7892C93A089B1898C9183700A
:1002400080648C93938D848D981306C00288F38903
:10025000E02D80818F7D80830895EF92FF920F9330
:100260001F93CF93DF93EC0181E0888F9B8D8C8D62
:1002700098131AC0E889F989808185FF15C09FB756
:10028000F894EE89FF896083E889F9898081837019
:10029000806480839FBF81E090E0DF91CF911F91C8
:1002A0000F91FF90EF900895F62E0B8D10E00F5FE9
:1002B0001F4F0F731127E02E8C8D8E110CC00FB6BF
:1002C00007FCFACFE889F989808185FFF5CFCE0157
:1002D0000E940B01F1CFEB8DEC0FFD2FF11DE35AC6
:1002E000FF4FF0829FB7F8940B8FEA89FB898081DA
:1002F0008062CFCFCF93DF93EC01888D8823B9F054
:10030000AA89BB89E889F9898C9185FD03C0808120
:1003100086FD0DC00FB607FCF7CF8C9185FFF2CF9D
:10032000808185FFEDCFCE010E940B01E9CFDF91E7
:10033000CF910895833081F028F4813099F0823094
:10034000A9F008958730A9F08830C9F08430B1F45D
:10035000809180008F7D03C0809180008F77809393
:100360008000089584B58F7784BD089584B58F7D0E
:10037000FBCF8091B0008F778093B000089580917B
:10038000B0008F7DF9CF1F93CF93DF93282F30E0FC
:10039000F901E155FF4F8491F901E556FF4FD491E2
:1003A000F901E957FF4FC491CC23A9F0162F811111
:1003B0000E949A01EC2FF0E0EE0FFF1FEE58FF4F66
:1003C000A591B4918FB7F894EC91111108C0D09514
:1003D000DE23DC938FBFDF91CF911F910895DE2B39
:1003E000F8CFCF93DF93C1E0D2E060E08E810E942E
:1003F000C30160E08F810E94C30161E08E810E9491
:10040000C30161E08F81DF91CF910C94C301CF9341
:10041000DF93C1E0D2E061E08E810E94C30161E020
:100420008F810E94C30160E08F810E94C30160E060
:100430008E81DF91CF910C94C301CF93DF9390E035
:10044000FC01E556FF4F249189579F4FFC01849191
:100450008823D1F090E0880F991FFC01E859FF4FE5
:10046000A591B491FC01EE58FF4FC591D491611153
:100470000EC09FB7F8948C91E22FE0958E238C9359
:100480002881E223E8839FBFDF91CF9108958FB742
:10049000F894EC91E22BEC938FBFF6CF0F931F9360
:1004A000CF93DF93D82FC8E060E0809107020E94CD
:1004B000C3010D2F0D2E000C110B61E0D0FF60E089
:1004C000809108020E94C30115950795D02F61E025
:1004D000809107020E94C301C15031F760E0809112
:1004E00007020E94C30161E0809108020E94C301DB
:1004F00061E0809107020E94C30160E080910802E0
:100500000E941D0283EC90E00197F1F72091080210
:1005100030E0F901E155FF4F8491F901E556FF4FB5
:10052000D491F901E957FF4FC491CC2381F1811196
:100530000E949A01EC2FF0E0EE0FFF1FE358FF4FEF
:10054000A591B491EC91ED23C1E0D0E009F4C0E0B5
:10055000C1110AC061E0809108020E941D0260E0A2
:10056000809108020E94C30103EC10E0C8010197CA
:10057000F1F761E0809108020E941D02C801019715
:10058000F1F7CE01DF91CF911F910F910895C0E057
:10059000D0E0E0CFCF93DF93D82F80910402C0E06A
:1005A0008111C0E80E94070284E40E944E020E946A
:1005B000F1010E9407028D2F806C0E944E028C2F49
:1005C0000E944E020E94F1010E94070280910302E4
:1005D0000E944E02DF91CF910C94F1011F920F9275
:1005E0000FB60F9211242F933F934F935F936F9306
:1005F0007F938F939F93AF93BF93EF93FF938091DC
:10060000330190913401A0913501B0913601892BCD
:100610008A2B8B2BD1F190912E01E0912F01F0913B
:10062000300180818927808380913301909134014A
:10063000A0913501B0913601181619061A061B064D
:100640009CF48091330190913401A0913501B091D7
:1006500036010197A109B1098093330190933401C8
:10066000A0933501B0933601FF91EF91BF91AF9107
:100670009F918F917F916F915F914F913F912F91BA
:100680000F900FBE0F901F90189580910001ECE71E
:10069000F0E0E4919FEF90930001E13051F030F0F1
:1006A000E23069F060E00E94C301DECF10926E007C
:1006B000F9CF90916F009D7F90936F00F3CF909151
:1006C00070009D7F9093700091E09093B0009091A6
:1006D000B100987F94609093B1001092B300E2CF84
:1006E0001F920F920FB60F9211242F933F934F93A7
:1006F0005F936F937F938F939F93AF93BF93EF938A
:10070000FF938FE391E00E940B01FF91EF91BF9166
:10071000AF919F918F917F916F915F914F913F9199
:100720002F910F900FBE0F901F9018951F920F9250
:100730000FB60F9211242F938F939F93EF93FF93F4
:10074000E0914F01F09150018081E0915501F091CD
:10075000560182FD1BC09081809158018F5F8F737D
:1007600020915901821741F0E0915801F0E0E15CDD
:10077000FE4F958F80935801FF91EF919F918F913C
:100780002F910F900FBE0F901F9018958081F4CF7E
:100790001F920F920FB60F9211242F933F938F93B6
:1007A0009F93AF93BF9380912A0190912B01A091C9
:1007B0002C01B0912D013091290123E0230F2D3719
:1007C00058F50196A11DB11D2093290180932A019E
:1007D00090932B01A0932C01B0932D0180912501C2
:1007E00090912601A0912701B09128010196A11DA9
:1007F000B11D8093250190932601A0932701B0930A
:100800002801BF91AF919F918F913F912F910F90B0
:100810000FBE0F901F90189526E8230F0296A11D7A
:10082000B11DD2CF1F920F920FB60F9211242F93AA
:100830003F934F935F936F937F938F939F93AF9368
:10084000BF93CF93DF93EF93FF9380912401C091E7
:100850000002D0E087FF24C010928500109284002F
:10086000809124018F5F8093240180912401082EC0
:10087000000C990B8C179D0724F4809124018C3077
:10088000C4F18091840090918500049680349C4945
:1008900008F47AC08091840090918500049676C017
:1008A00080912401082E000C990B8C179D07C4F62B
:1008B000E09124018E2FEE0F990BFC01EE0FFF1F2C
:1008C000E80FF91FE452FE4F808186FFC9CFE09107
:1008D00024018E2FEE0F990BFC01EE0FFF1FE80F86
:1008E000F91FE452FE4F808160E08F730E94C301C4
:1008F000B7CF2091840030918500E09124018E2FA4
:10090000EE0F990BFC01EE0FFF1FE80FF91FE452E9
:10091000FE4F81819281820F931F90938900809373
:100920008800E09124018E2FEE0F990BFC01EE0F51
:10093000FF1FE80FF91FE452FE4F808186FF11C0B0
:10094000E09124018E2FEE0F990BFC01EE0FFF1F9B
:10095000E80FF91FE452FE4F808161E08F730E941F
:10096000C301FF91EF91DF91CF91BF91AF919F9123
:100970008F917F916F915F914F913F912F910F9048
:100980000FBE0F901F90189580E49CE9909389000A
:10099000809388008FEF80932401E3CF109242016F
:1009A0001092410188EE93E0A0E0B0E08093430113
:1009B00090934401A0934501B093460185E091E0F6
:1009C0009093400180933F0185EC90E090934C011F
:1009D00080934B0184EC90E090934E0180934D0105
:1009E00080EC90E09093500180934F0181EC90E077
:1009F000909352018093510182EC90E090935401C6
:100A00008093530186EC90E09093560180935501BA
:100A1000109258011092590110925A0110925B01E4
:100A2000809100028C3038F591E0980F909300028D
:100A30008093090290E0FC01EE0FFF1FE80FF91F01
:100A4000E452FE4F88EB9BE09283818384E090E048
:100A5000909306028093050281E18093070280E172
:100A60008093080261E081E10E941D0261E08091B3
:100A700008020C941D028FEF80930902E7CF78944F
:100A800084B5826084BD84B5816084BD85B5826093
:100A900085BD85B5816085BD80916E008160809344
:100AA0006E001092810080918100826080938100AD
:100AB00080918100816080938100809180008160BD
:100AC000809380008091B10084608093B100809118
:100AD000B00081608093B00080917A008460809340
:100AE0007A0080917A00826080937A0080917A0007
:100AF000816080937A0080917A00806880937A0088
:100B00001092C100E0914F01F091500182E080838A
:100B1000E0914B01F0914C011082E0914D01F09178
:100B20004E018FEC808310925701E0915301F091B8
:100B3000540186E08083E0915101F091520180815F
:100B400080618083E0915101F09152018081886041
:100B50008083E0915101F09152018081806880830F
:100B6000E0915101F091520180818F7D80838091CD
:100B700009028C3008F051C061E089E00E941D023A
:100B800080910902282F30E0F901EE0FFF1FE20FDC
:100B9000F31FE452FE4F9081907C996090831092F5
:100BA0000A0210920B022CE0622F0E941C07829F07
:100BB000B001112430E020E0AB01420F531FFA01D5
:100BC000EE0FFF1FE40FF51FE452FE4F908196FDDC
:100BD00016C02F5F3F4F2C30310571F781110FC0C8
:100BE0001092800082E08093810010928500109224
:100BF0008400B19A80916F00826080936F00E091D1
:100C000009028E2F90E0FC01EE0FFF1FE80FF91F85
:100C1000E452FE4F80818064808380E00E94CA029B
:100C200081E00E94CA0282E00E94CA0283E00E9420
:100C3000CA0280E48093010280EC809302028FE874
:100C400080930302809100018830E9F08F3F91F199
:100C50004CE050E063E171E08FE391E00E948D0091
:100C600042E050E060E271E08FE391E00E948D008D
:100C7000C0E0D0E02097F1F30E94F7008823D1F381
:100C80000E940000F7CFECE7F0E0C491C7FDE0CF91
:100C900061E088E00E941D02CC2309F47AC0C230D2
:100CA00009F08FC08091B100887F84608093B1008B
:100CB0008FECAEC088E080930001ECE7F0E0C491D7
:100CC000CF3F09F4C5CFC13021F150F0C23009F453
:100CD0003EC0C7FDBDCF61E088E00E941D02DFCFAE
:100CE00014BC15BC84B5826084BD85B5816085BDAA
:100CF000EFE8F0E0E491F0E0EE0FFF1FEE58FF4F59
:100D000085919491E3EAF0E0E491E0933201C0E050
:100D1000BFCF109280001092810080918100886086
:100D20008093810080918100816080938100EFE851
:100D3000F0E0E491F0E0EE0FFF1FEE58FF4F8591D9
:100D40009491E3EAF0E0E491E0933101A1CF1092B5
:100D5000B0001092B1008091B00082608093B0002A
:100D60008091B10081608093B100EFE8F0E0E49100
:100D7000F0E0EE0FFF1FEE58FF4F85919491909396
:100D8000300180932F01E3EAF0E0E491E0932E013B
:100D90007FCF85B5887F836085BD8FEC87BD88E672
:100DA00091E0A0E0B0E080933B0190933C01A093E0
:100DB0003D01B0933E0180916E00826080936E0091
:100DC00047CFC130F1F480918100887F81608093AA
:100DD000810084E194E3909389008093880088E601
:100DE00091E0A0E0B0E08093370190933801A093A8
:100DF0003901B0933A0180916F00826080936F0057
:100E000027CFC23021F0C11123CF84E1C7CF84E1C5
:100E10008093B30088E691E0A0E0B0E080933301D6
:100E200090933401A0933501B09336018091700006
:100E30008260809370000CCF991B79E004C0991FE9
:100E4000961708F0961B881F7A95C9F78095089524
:100E5000EE0FFF1F0590F491E02D0994F894FFCF59
:100E6000FF000000002D018D00BA007A01EB00C9DF
:100E700000DD0048656C6C6F204D44542121210039
:040E80000D0A000057
:00000001FF
