:100000000C9463000C948B000C948B000C948B006C
:100010000C948B000C948B000C948B000C943D047E
:100020000C948B000C948B000C948B000C94610549
:100030000C948B000C948B000C948B000C948B0014
:100040000C9417050C948B000C94E5040C94BF04DD
:100050000C948B000C948B000C948B000C948B00F4
:100060000C948B000C948B000000000024002700EF
:100070002A0000000000250028002B0002000000DC
:1000800000230026002900040404040404040402DC
:100090000202020202030303030303010204081025
:1000A00020408001020408102001020408102000F2
:1000B0000000080002010000030407000000000027
:1000C000000000001D0611241FBECFEFD8E0DEBFE8
:1000D000CDBF11E0A0E0B1E0ECE1F2E102C005909B
:1000E0000D92AA3BB107D9F722E0AAEBB1E001C01B
:1000F0001D92A23AB207E1F710E0C3E6D0E004C0D7
:100100002197FE010E940609C236D107C9F70E9455
:100110008E060C940C090C9400008F929F92AF9263
:10012000BF92FF920F931F93CF93DF93F0909F02A4
:100130002BE02F1508F44CC02091A10208E512E035
:10014000021B110927FD1395000F111F000F111F2E
:100150002091A002C8E8D0E0C21BD10927FDD395A9
:10016000CC0FDD1FCC0FDD1F4E010D2E000CAA0899
:10017000BB089801012E000C440B550B28193909B6
:100180004A095B09DC010E94C10824EB30E040E031
:1001900050E00E949708820E931EA41EB51E8C1676
:1001A0009D062CF0E801801691060CF4E4012297DC
:1001B000CC0FDD1F2FB7F8948F2D90E0FC01EE0FD0
:1001C000FF1FE80FF91FEE58FD4FD283C1832FBFE9
:1001D000DF91CF911F910F91FF90BF90AF909F90B3
:1001E0008F900895AF92BF92CF92DF92EF92FF92DD
:1001F0000F931F93CF93DF936C017B018B01040F4F
:10020000151FEB015E01AE18BF08C017D10759F0EA
:100210006991D601ED91FC910190F081E02DC6012C
:100220000995892B79F7C501DF91CF911F910F9126
:10023000FF90EF90DF90CF90BF90AF900895FC01BA
:10024000538D448D252F30E0842F90E0821B930B3B
:10025000541710F0CF96089501970895FC01918DE1
:10026000828D981761F0A28DAE0FBF2FB11D5D96E4
:100270008C91928D9F5F9F73928F90E008958FEF86
:100280009FEF0895FC01918D828D981731F0828D3A
:10029000E80FF11D858D90E008958FEF9FEF089591
:1002A000FC01918D228D892F90E0805C9F4F821BF5
:1002B00091098F739927089585ED91E00E9450016F
:1002C00021E0892B09F420E0822F089580E090E05E
:1002D000892B29F00E945C0181110C940000089583
:1002E000FC01A48DA80FB92FB11DA35ABF4F2C91AB
:1002F000848D90E001968F739927848FA689B789A2
:100300002C93A089B1898C91837080648C93938D98
:10031000848D981306C00288F389E02D80818F7D3B
:1003200080830895EF92FF920F931F93CF93DF93F3
:10033000EC0181E0888F9B8D8C8D98131AC0E88921
:10034000F989808185FF15C09FB7F894EE89FF89F0
:100350006083E889F98980818370806480839FBF8E
:1003600081E090E0DF91CF911F910F91FF90EF908E
:100370000895F62E0B8D10E00F5F1F4F0F7311279E
:10038000E02E8C8D8E110CC00FB607FCFACFE889D9
:10039000F989808185FFF5CFCE010E947001F1CFF0
:1003A000EB8DEC0FFD2FF11DE35AFF4FF0829FB74D
:1003B000F8940B8FEA89FB8980818062CFCFCF933D
:1003C000DF93EC01888D8823B9F0AA89BB89E8897D
:1003D000F9898C9185FD03C0808186FD0DC00FB623
:1003E00007FCF7CF8C9185FFF2CF808185FFEDCFA1
:1003F000CE010E947001E9CFDF91CF910895833043
:1004000081F028F4813099F08230A9F00895873086
:10041000A9F08830C9F08430B1F4809180008F7DDC
:1004200003C0809180008F7780938000089584B509
:100430008F7784BD089584B58F7DFBCF8091B00008
:100440008F778093B00008958091B0008F7DF9CFB1
:100450001F93CF93DF93282F30E0F901E155FF4F31
:100460008491F901E556FF4FD491F901E957FF4F07
:10047000C491CC23A9F0162F81110E94FF01EC2F0B
:10048000F0E0EE0FFF1FEE58FF4FA591B4918FB72C
:10049000F894EC91111108C0D095DE23DC938FBF46
:1004A000DF91CF911F910895DE2BF8CFCF93DF938B
:1004B000C7E9D2E060E08E810E94280260E08F816F
:1004C0000E94280261E08E810E94280261E08F81F3
:1004D000DF91CF910C942802CF93DF93C7E9D2E04C
:1004E00061E08E810E94280261E08F810E942802D3
:1004F00060E08F810E94280260E08E81DF91CF91C1
:100500000C942802CF93DF9390E0FC01E556FF4F57
:10051000249189579F4FFC0184918823D1F090E06A
:10052000880F991FFC01E859FF4FA591B491FC0178
:10053000EE58FF4FC591D49161110EC09FB7F8944A
:100540008C91E22FE0958E238C932881E223E8831F
:100550009FBFDF91CF9108958FB7F894EC91E22B74
:10056000EC938FBFF6CF0F931F93CF93DF93D82FCA
:10057000C8E060E080919D020E9428020D2F0D2EA0
:10058000000C110B61E0D0FF60E080919E020E94A0
:10059000280215950795D02F61E080919D020E9459
:1005A0002802C15031F760E080919D020E9428022C
:1005B00061E080919E020E94280261E080919D028C
:1005C0000E94280260E080919E020E94820283ECD9
:1005D00090E00197F1F720919E0230E0F901E1559A
:1005E000FF4F8491F901E556FF4FD491F901E95786
:1005F000FF4FC491CC2381F181110E94FF01EC2FA8
:10060000F0E0EE0FFF1FE358FF4FA591B491EC917E
:10061000ED23C1E0D0E009F4C0E0C1110AC061E0FF
:1006200080919E020E94820260E080919E020E9460
:10063000280203EC10E0C8010197F1F761E0809116
:100640009E020E948202C8010197F1F7CE01DF915C
:10065000CF911F910F910895C0E0D0E0E0CFCF93EC
:10066000DF93D82FE62F6F37D9F1603140F50E2E8A
:10067000000CFF0BE45AFE4F808190919A02C0E07B
:100680009111C0E8C80F0E946C0284E40E94B3027A
:100690000E9456020E946C028D2F806C0E94B30251
:1006A0008C2F0E94B3020E9456020E946C0280911D
:1006B00099020E94B302DF91CF910C94560280ED13
:1006C000860F8A3030F40E2E000CFF0BE45DFE4FD7
:1006D000D3CFE052EB3520F4F0E0EF5FFE4FCCCF0C
:1006E00080E0CBCF3FB7F8948091C0019091C101D9
:1006F000A091C201B091C30126B5A89B05C02F3FB0
:1007000019F00196A11DB11D3FBFBA2FA92F982F37
:100710008827BC01CD01620F711D811D911D42E032
:10072000660F771F881F991F4A95D1F708958F92FA
:100730009F92AF92BF92CF92DF92EF92FF926B01A6
:100740007C010E9472034B015C01C114D104E104DD
:10075000F104B9F00E947203681979098A099B09AA
:10076000683E73408105910580F321E0C21AD108EB
:10077000E108F10888EE880E83E0981EA11CB11CE8
:10078000E4CFFF90EF90DF90CF90BF90AF909F901D
:100790008F900895EF92FF920F931F93CF93DF9363
:1007A0007C0110E000E0E70109900020E9F72197C3
:1007B000CE19DF0980919B0290919C020C171D07B6
:1007C00058F508171907F4F064EF71E080E090E045
:1007D0000E949703D0E0C0E09E0180919B0290911F
:1007E0009C02219628173907A4F4F801EC0FFD1F8D
:1007F000E81BF90BEE0DFF1D60818C2F81500E94CC
:100800002F03EACFF701E00FF11F6081802F0E94D4
:100810002F030F5F1F4FC7CF80919B0290919C02C7
:10082000C817D90734F46FE78C2F0E942F03219645
:10083000F3CFDF91CF911F910F91FF90EF9008952B
:10084000CF93DF93FC0101900020E9F73197AF01CE
:10085000481B590BBC0185ED91E00E94F200EC01B0
:1008600042E050E06EE771E085ED91E00E94F20019
:100870008C0F9D1FDF91CF9108951F920F920FB69D
:100880000F9211242F933F934F935F936F937F9316
:100890008F939F93AF93BF93EF93FF938091C90181
:1008A0009091CA01A091CB01B091CC01892B8A2BE8
:1008B0008B2BD1F19091C401E091C501F091C6015B
:1008C0008081892780838091C9019091CA01A0917C
:1008D000CB01B091CC01181619061A061B069CF420
:1008E0008091C9019091CA01A091CB01B091CC0136
:1008F0000197A109B1098093C9019093CA01A093FE
:10090000CB01B093CC01FF91EF91BF91AF919F913B
:100910008F917F916F915F914F913F912F910F90A8
:100920000FBE0F901F90189580910001ECE7F0E04A
:10093000E4919FEF90930001E13051F030F0E2300C
:1009400069F060E00E942802DECF10926E00F9CFBD
:1009500090916F009D7F90936F00F3CF9091700006
:100960009D7F9093700091E09093B0009091B100C2
:10097000987F94609093B1001092B300E2CF1F92E1
:100980000F920FB60F9211242F933F934F935F93C3
:100990006F937F938F939F93AF93BF93EF93FF9347
:1009A00085ED91E00E947001FF91EF91BF91AF91B1
:1009B0009F918F917F916F915F914F913F912F9177
:1009C0000F900FBE0F901F9018951F920F920FB6A9
:1009D0000F9211242F938F939F93EF93FF93E091A6
:1009E000E501F091E6018081E091EB01F091EC01ED
:1009F00082FD1BC090818091EE018F5F8F732091EB
:100A0000EF01821741F0E091EE01F0E0EB52FE4F72
:100A1000958F8093EE01FF91EF919F918F912F9190
:100A20000F900FBE0F901F9018958081F4CF1F92EA
:100A30000F920FB60F9211242F933F938F939F9392
:100A4000AF93BF938091BC019091BD01A091BE0175
:100A5000B091BF013091BB0123E0230F2D3758F532
:100A60000196A11DB11D2093BB018093BC01909301
:100A7000BD01A093BE01B093BF018091C0019091D0
:100A8000C101A091C201B091C3010196A11DB11D88
:100A90008093C0019093C101A093C201B093C301A0
:100AA000BF91AF919F918F913F912F910F900FBE6A
:100AB0000F901F90189526E8230F0296A11DB11DD7
:100AC000D2CF1F920F920FB60F9211242F933F9304
:100AD0004F935F936F937F938F939F93AF93BF9346
:100AE000CF93DF93EF93FF938091BA01C091960269
:100AF000D0E087FF24C0109285001092840080917E
:100B0000BA018F5F8093BA018091BA01082E000C60
:100B1000990B8C179D0724F48091BA018C30C4F195
:100B20008091840090918500049680349C4908F45B
:100B30007AC08091840090918500049676C080915F
:100B4000BA01082E000C990B8C179D07C4F6E09192
:100B5000BA018E2FEE0F990BFC01EE0FFF1FE80F6D
:100B6000F91FEE58FD4F808186FFC9CFE091BA0191
:100B70008E2FEE0F990BFC01EE0FFF1FE80FF91FF0
:100B8000EE58FD4F808160E08F730E942802B7CF3E
:100B90002091840030918500E091BA018E2FEE0FF4
:100BA000990BFC01EE0FFF1FE80FF91FEE58FD4FE8
:100BB00081819281820F931F909389008093880096
:100BC000E091BA018E2FEE0F990BFC01EE0FFF1F83
:100BD000E80FF91FEE58FD4F808186FF11C0E091AC
:100BE000BA018E2FEE0F990BFC01EE0FFF1FE80FDD
:100BF000F91FEE58FD4F808161E08F730E9428023B
:100C0000FF91EF91DF91CF91BF91AF919F918F9124
:100C10007F916F915F914F913F912F910F900FBEF8
:100C20000F901F90189580E49CE990938900809321
:100C300088008FEF8093BA01E3CF1092D801109211
:100C4000D70188EE93E0A0E0B0E08093D9019093C3
:100C5000DA01A093DB01B093DC0180E791E090938F
:100C6000D6018093D50185EC90E09093E2018093CA
:100C7000E10184EC90E09093E4018093E30180EC47
:100C800090E09093E6018093E50181EC90E09093F1
:100C9000E8018093E70182EC90E09093EA01809371
:100CA000E90186EC90E09093EC018093EB011092C7
:100CB000EE011092EF011092F0011092F10180917B
:100CC00096028C3038F591E0980F909396028093BD
:100CD0009F0290E0FC01EE0FFF1FE80FF91FEE5896
:100CE000FD4F88EB9BE09283818384E090E09093BA
:100CF0009C0280939B0281E180939D0280E180931E
:100D00009E0261E081E10E94820261E080919E0288
:100D10000C9482028FEF80939F02E7CF789484B582
:100D2000826084BD84B5816084BD85B5826085BDE7
:100D300085B5816085BD80916E00816080936E0075
:100D40001092810080918100826080938100809167
:100D50008100816080938100809180008160809318
:100D600080008091B10084608093B1008091B000D8
:100D700081608093B00080917A00846080937A00D3
:100D800080917A00826080937A0080917A008160FD
:100D900080937A0080917A00806880937A00109224
:100DA000C100E091E501F091E60182E08083E091ED
:100DB000E101F091E2011082E091E301F091E401A0
:100DC0008FEC80831092ED01E091E901F091EA014E
:100DD00086E08083E091E701F091E8018081806105
:100DE0008083E091E701F091E80180818860808351
:100DF000E091E701F091E801808180688083E091D3
:100E0000E701F091E80180818F7D808380919F02CE
:100E10008C3008F051C061E089E00E94820280912C
:100E20009F02282F30E0F901EE0FFF1FE20FF31FA2
:100E3000EE58FD4F9081907C996090831092A002B3
:100E40001092A1022CE0622F0E94FA08829FB0014A
:100E5000112430E020E0AB01420F531FFA01EE0FE6
:100E6000FF1FE40FF51FEE58FD4F908196FD16C051
:100E70002F5F3F4F2C30310571F781110FC0109259
:100E8000800082E08093810010928500109284009F
:100E9000B19A80916F00826080936F00E0919F0211
:100EA0008E2F90E0FC01EE0FFF1FE80FF91FEE58A8
:100EB000FD4F8081806480836FE780E00E942F0374
:100EC0006FE781E00E942F036FE782E00E942F030B
:100ED0006FE783E00E942F0380E48093970280EC09
:100EE000809398028FE88093990280910001883066
:100EF00009F444C08F3F09F458C081E891E00E9492
:100F0000200490E080E00E948D0086E990E00E943D
:100F10008D008EE891E00E94200460E273E080E0A2
:100F200090E00E94970386E990E00E948D0090E097
:100F300080E00E948D0082EA91E00E94200460E23D
:100F400073E080E090E00E94970384EB91E00E94C0
:100F5000CA0360E273E080E090E00E94970380E8BB
:100F600091E00E94CA03C0E0D0E02097F1F30E9414
:100F70005C018823D1F30E940000F7CFECE7F0E09A
:100F8000C491C7FDBACF61E088E00E948202CC2301
:100F900009F47AC0C23009F08FC08091B100887F17
:100FA00084608093B1008FECAEC088E08093000134
:100FB000ECE7F0E0C491CF3F09F49FCFC13021F1BD
:100FC00050F0C23009F43EC0C7FD97CF61E088E021
:100FD0000E948202DFCF14BC15BC84B5826084BD40
:100FE00085B5816085BDEFE8F0E0E491F0E0EE0FBB
:100FF000FF1FEE58FF4F85919491E3EAF0E0E491F2
:10100000E093C801C0E0BFCF109280001092810031
:10101000809181008860809381008091810081604F
:1010200080938100EFE8F0E0E491F0E0EE0FFF1F25
:10103000EE58FF4F85919491E3EAF0E0E491E0935C
:10104000C701A1CF1092B0001092B1008091B00002
:1010500082608093B0008091B10081608093B10084
:10106000EFE8F0E0E491F0E0EE0FFF1FEE58FF4FE5
:10107000859194919093C6018093C501E3EAF0E0D5
:10108000E491E093C4017FCF85B5887F836085BDFF
:101090008FEC87BD88E691E0A0E0B0E08093D101BD
:1010A0009093D201A093D301B093D40180916E00AC
:1010B000826080936E0021CFC130F1F48091810075
:1010C000887F81608093810084E194E3909389001C
:1010D0008093880088E691E0A0E0B0E08093CD01A5
:1010E0009093CE01A093CF01B093D00180916F0077
:1010F000826080936F0001CFC23021F0C111FDCE1C
:1011000084E1C7CF84E18093B30088E691E0A0E05A
:10111000B0E08093C9019093CA01A093CB01B09332
:10112000CC0180917000826080937000E6CE052E25
:1011300097FB1EF400940E94AE0857FD07D00E9452
:10114000C90807FC03D04EF40C94AE0850954095A6
:10115000309521953F4F4F4F5F4F08959095809563
:10116000709561957F4F8F4F9F4F08950E94EB08B8
:10117000A59F900DB49F900DA49F800D911D1124EB
:101180000895B7FF0C94B6080E94B608821B930B13
:101190000895A1E21A2EAA1BBB1BFD010DC0AA1FB8
:1011A000BB1FEE1FFF1FA217B307E407F50720F0D0
:1011B000A21BB30BE40BF50B661F771F881F991F4B
:1011C0001A9469F760957095809590959B01AC0194
:1011D000BD01CF010895A29FB001B39FC001A39F9D
:1011E000700D811D1124911DB29F700D811D112460
:1011F000911D0895991B79E004C0991F961708F076
:10120000961B881F7A95C9F780950895EE0FFF1FEA
:0C1210000590F491E02D0994F894FFCFB4
:10121C00FF00000000000000000000630000400020
:10122C0000000000000000000000000000000000B2
:10123C000000777C395E79713576061E7538375427
:10124C005C737B506D781C3E7E766E1B000000013B
:10125C0008005F7C585E7971357404167538375404
:10126C005C7367506D781C3E2A766E1B3F065B4F95
:10127C00666D7D077F6F777C395E797100000000A9
:10128C009201F2001F01DF0150012E0142010D0AF3
:10129C000048656C6C6F204D44542121210053652E
:1012AC0072766F203A20313530206465677265653F
:1012BC007300536572766F203A2030206465677234
:0A12CC00656573003030303000001B
:00000001FF
