:100000000C9463000C948B000C948B000C948B006C
:100010000C948B000C948B000C948B000C942E058C
:100020000C948B000C948B000C948B000C94520657
:100030000C948B000C948B000C948B000C948B0014
:100040000C9408060C948B000C94D6050C94B00507
:100050000C948B000C948B000C948B000C948B00F4
:100060000C948B000C948B000000000024002700EF
:100070002A000000000023002600290000000008DC
:10008000000201000003040700000000000000005F
:10009000010204081020408001020408102001021F
:1000A0000408102000000000250028002B00040494
:1000B0000404040404040202020202020303030310
:1000C000030302000E0711241FBECFEFD8E0DEBFEE
:1000D000CDBF11E0A0E0B1E0E0E6F2E102C00590A2
:1000E0000D92AA3BB107D9F722E0AAEBB1E001C01B
:1000F0001D92A23AB207E1F710E0C3E6D0E004C0D7
:100100002197FE010E942809C236D107C9F70E9433
:100110007F070C942E090C9400008F929F92AF924F
:10012000BF92FF920F931F93CF93DF93F0909F02A4
:100130002BE02F1508F44CC02091A10208E512E035
:10014000021B110927FD1395000F111F000F111F2E
:100150002091A002C8E8D0E0C21BD10927FDD395A9
:10016000CC0FDD1FCC0FDD1F4E010D2E000CAA0899
:10017000BB089801012E000C440B550B28193909B6
:100180004A095B09DC010E94E30824EB30E040E00F
:1001900050E00E94B908820E931EA41EB51E8C1654
:1001A0009D062CF0E801801691060CF4E4012297DC
:1001B000CC0FDD1F2FB7F8948F2D90E0FC01EE0FD0
:1001C000FF1FE80FF91FEE58FD4FD283C1832FBFE9
:1001D000DF91CF911F910F91FF90BF90AF909F90B3
:1001E0008F900895AF92BF92CF92DF92EF92FF92DD
:1001F0000F931F93CF93DF936C017B018B01040F4F
:10020000151FEB015E01AE18BF08C017D10759F0EA
:100210006991D601ED91FC910190F081E02DC6012C
:100220000995892B79F7C501DF91CF911F910F9126
:10023000FF90EF90DF90CF90BF90AF900895FC01BA
:10024000538D448D252F30E0842F90E0821B930B3B
:10025000541710F0CF96089501970895FC01918DE1
:10026000828D981761F0A28DAE0FBF2FB11D5D96E4
:100270008C91928D9F5F9F73928F90E008958FEF86
:100280009FEF0895FC01918D828D981731F0828D3A
:10029000E80FF11D858D90E008958FEF9FEF089591
:1002A000FC01918D228D892F90E0805C9F4F821BF5
:1002B00091098F739927089585ED91E00E9450016F
:1002C00021E0892B09F420E0822F089580E090E05E
:1002D000892B29F00E945C0181110C940000089583
:1002E000FC01A48DA80FB92FB11DA35ABF4F2C91AB
:1002F000848D90E001968F739927848FA689B789A2
:100300002C93A089B1898C91837080648C93938D98
:10031000848D981306C00288F389E02D80818F7D3B
:1003200080830895EF92FF920F931F93CF93DF93F3
:10033000EC0181E0888F9B8D8C8D98131AC0E88921
:10034000F989808185FF15C09FB7F894EE89FF89F0
:100350006083E889F98980818370806480839FBF8E
:1003600081E090E0DF91CF911F910F91FF90EF908E
:100370000895F62E0B8D10E00F5F1F4F0F7311279E
:10038000E02E8C8D8E110CC00FB607FCFACFE889D9
:10039000F989808185FFF5CFCE010E947001F1CFF0
:1003A000EB8DEC0FFD2FF11DE35AFF4FF0829FB74D
:1003B000F8940B8FEA89FB8980818062CFCFCF933D
:1003C000DF93EC01888D8823B9F0AA89BB89E8897D
:1003D000F9898C9185FD03C0808186FD0DC00FB623
:1003E00007FCF7CF8C9185FFF2CF808185FFEDCFA1
:1003F000CE010E947001E9CFDF91CF910895833043
:1004000081F028F4813099F08230A9F00895873086
:10041000A9F08830C9F08430B1F4809180008F7DDC
:1004200003C0809180008F7780938000089584B509
:100430008F7784BD089584B58F7DFBCF8091B00008
:100440008F778093B00008958091B0008F7DF9CFB1
:100450001F93CF93DF93282F30E0F901E458FF4F2B
:100460008491F901E057FF4FD491F901E255FF4F14
:10047000C491CC23A9F0162F81110E94FF01EC2F0B
:10048000F0E0EE0FFF1FEC55FF4FA591B4918FB731
:10049000F894EC91111108C0D095DE23DC938FBF46
:1004A000DF91CF911F910895DE2BF8CFCF93DF938B
:1004B000C7E9D2E060E08E810E94280260E08F816F
:1004C0000E94280261E08E810E94280261E08F81F3
:1004D000DF91CF910C942802CF93DF93C7E9D2E04C
:1004E00061E08E810E94280261E08F810E942802D3
:1004F00060E08F810E94280260E08E81DF91CF91C1
:100500000C942802CF93DF9390E0FC01E057FF4F5B
:10051000249182559F4FFC0184918823D1F090E073
:10052000880F991FFC01E859FF4FA591B491FC0178
:10053000EC55FF4FC591D49161110EC09FB7F8944F
:100540008C91E22FE0958E238C932881E223E8831F
:100550009FBFDF91CF9108958FB7F894EC91E22B74
:10056000EC938FBFF6CFCF92DF92EF92FF921F9363
:10057000CF93DF936B017C0180910001883051F0B3
:100580008F3FF1F0DF91CF911F91FF90EF90DF90BF
:10059000CF900895E2ECF0E0C491C7FDF3CF61E0A5
:1005A00088E00E948202CC2309F478C0C23009F0AE
:1005B0009CC08091B100887F84608093B10072C03C
:1005C00088E080930001E2ECF0E0C491CF3FD1F2EB
:1005D000C13021F150F0C23009F43EC0C7FDD2CF86
:1005E00061E088E00E948202E1CF14BC15BC84B5B2
:1005F000826084BD85B5816085BDE6EBF0E0E49165
:10060000F0E0EE0FFF1FEC55FF4F85919491E8E964
:10061000F0E0E491E093C801C0E0C1CF1092800007
:100620001092810080918100886080938100809188
:100630008100816080938100E6EBF0E0E491F0E0DE
:10064000EE0FFF1FEC55FF4F85919491E8E9F0E024
:10065000E491E093C701A3CF1092B0001092B100D3
:100660008091B00082608093B0008091B100816081
:100670008093B100E6EBF0E0E491F0E0EE0FFF1FB5
:10068000EC55FF4F859194919093C6018093C501DD
:10069000E8E9F0E0E491E093C40181CF85B5887F7B
:1006A000836085BDDFEC10E0A0EBB4E0A70196010C
:1006B0000E94D80828EE33E040E050E00E94EB08AA
:1006C000C130F1F0C23081F1C1115CCFD7BD2093B0
:1006D000D1013093D2014093D3015093D401809142
:1006E0006E00826080936E004DCFC13031F48091F6
:1006F0008100887F816080938100D4E114E3D4CFAE
:100700008D2F912F90938900809388002093CD01A5
:100710003093CE014093CF015093D00180916F0070
:10072000826080936F002ECFD093B3002093C901D5
:100730003093CA014093CB015093CC01809170005B
:100740008260809370001ECF0F931F93CF93DF932F
:10075000D82FC8E060E080919D020E9428020D2FF2
:100760000D2E000C110B61E0D0FF60E080919E0225
:100770000E94280215950795D02F61E080919D0277
:100780000E942802C15031F760E080919D020E94D2
:10079000280261E080919E020E94280261E080911F
:1007A0009D020E94280260E080919E020E948202C7
:1007B00083EC90E00197F1F720919E0230E0F9017F
:1007C000E458FF4F8491F901E057FF4FD491F901AC
:1007D000E255FF4FC491CC2381F181110E94FF01AA
:1007E000EC2FF0E0EE0FFF1FEE58FF4FA591B491F4
:1007F000EC91ED23C1E0D0E009F4C0E0C1110AC0E2
:1008000061E080919E020E94820260E080919E02DF
:100810000E94280203EC10E0C8010197F1F761E0A3
:1008200080919E020E948202C8010197F1F7CE01D9
:10083000DF91CF911F910F910895C0E0D0E0E0CFFC
:10084000CF93DF93D82FE62F6F37D9F1603140F582
:100850000E2E000CFF0BE45AFE4F808190919A02FD
:10086000C0E09111C0E8C80F0E946C0284E40E94AD
:10087000A4030E9456020E946C028D2F806C0E947D
:10088000A4038C2F0E94A4030E9456020E946C02B3
:10089000809199020E94A403DF91CF910C9456029B
:1008A00080ED860F8A3030F40E2E000CFF0BE45DD5
:1008B000FE4FD3CFE052EB3520F4F0E0EF5FFE4F78
:1008C000CCCF80E0CBCF3FB7F8948091C00190911E
:1008D000C101A091C201B091C30126B5A89B05C07A
:1008E0002F3F19F00196A11DB11D3FBFBA2FA92FAF
:1008F000982F8827BC01CD01620F711D811D911DAC
:1009000042E0660F771F881F991F4A95D1F7089517
:100910008F929F92AF92BF92CF92DF92EF92FF920F
:100920006B017C010E9463044B015C01C114D10482
:10093000E104F104B9F00E946304681979098A0995
:100940009B09683E73408105910580F321E0C21A3E
:10095000D108E108F10888EE880E83E0981EA11CFA
:10096000B11CE4CFFF90EF90DF90CF90BF90AF909D
:100970009F908F900895EF92FF920F931F93CF93C4
:10098000DF937C0110E000E0E70109900020E9F727
:100990002197CE19DF0980919B0290919C020C1740
:1009A0001D0758F508171907F4F064EF71E080E0AF
:1009B00090E00E948804D0E0C0E09E0180919B02FC
:1009C00090919C02219628173907A4F4F801EC0FA6
:1009D000FD1FE81BF90BEE0DFF1D60818C2F815070
:1009E0000E942004EACFF701E00FF11F6081802F01
:1009F0000E9420040F5F1F4FC7CF80919B029091F0
:100A00009C02C817D90734F46FE78C2F0E9420048A
:100A10002196F3CFDF91CF911F910F91FF90EF902F
:100A20000895CF93DF93FC0101900020E9F73197FF
:100A3000AF01481B590BBC0185ED91E00E94F2000B
:100A4000EC0142E050E06EE771E085ED91E00E943C
:100A5000F2008C0F9D1FDF91CF9108951F920F928E
:100A60000FB60F9211242F933F934F935F936F9381
:100A70007F938F939F93AF93BF93EF93FF93809157
:100A8000C9019091CA01A091CB01B091CC01892BF1
:100A90008A2B8B2BD1F19091C401E091C501F0918B
:100AA000C6018081892780838091C9019091CA0104
:100AB000A091CB01B091CC01181619061A061B069D
:100AC0009CF48091C9019091CA01A091CB01B09191
:100AD000CC010197A109B1098093C9019093CA0182
:100AE000A093CB01B093CC01FF91EF91BF91AF9157
:100AF0009F918F917F916F915F914F913F912F9136
:100B00000F900FBE0F901F90189580910001E2EC9E
:100B1000F0E0E4919FEF90930001E13051F030F06C
:100B2000E23069F060E00E942802DECF10926E0091
:100B3000F9CF90916F009D7F90936F00F3CF9091CC
:100B400070009D7F9093700091E09093B000909121
:100B5000B100987F94609093B1001092B300E2CFFF
:100B60001F920F920FB60F9211242F933F934F9322
:100B70005F936F937F938F939F93AF93BF93EF9305
:100B8000FF9385ED91E00E947001FF91EF91BF917D
:100B9000AF919F918F917F916F915F914F913F9115
:100BA0002F910F900FBE0F901F9018951F920F92CC
:100BB0000FB60F9211242F938F939F93EF93FF9370
:100BC000E091E501F091E6018081E091EB01F09187
:100BD000EC0182FD1BC090818091EE018F5F8F73CD
:100BE0002091EF01821741F0E091EE01F0E0EB522D
:100BF000FE4F958F8093EE01FF91EF919F918F9122
:100C00002F910F900FBE0F901F9018958081F4CFF9
:100C10001F920F920FB60F9211242F933F938F9331
:100C20009F93AF93BF938091BC019091BD01A09120
:100C3000BE01B091BF013091BB0123E0230F2D37DE
:100C400058F50196A11DB11D2093BB018093BC01F5
:100C50009093BD01A093BE01B093BF018091C001EC
:100C60009091C101A091C201B091C3010196A11D53
:100C7000B11D8093C0019093C101A093C201B093B4
:100C8000C301BF91AF919F918F913F912F910F9091
:100C90000FBE0F901F90189526E8230F0296A11DF6
:100CA000B11DD2CF1F920F920FB60F9211242F9326
:100CB0003F934F935F936F937F938F939F93AF93E4
:100CC000BF93CF93DF93EF93FF938091BA01C091CD
:100CD0009602D0E087FF24C0109285001092840015
:100CE0008091BA018F5F8093BA018091BA01082E7A
:100CF000000C990B8C179D0724F48091BA018C305D
:100D0000C4F18091840090918500049680349C49C0
:100D100008F47AC08091840090918500049676C092
:100D20008091BA01082E000C990B8C179D07C4F610
:100D3000E091BA018E2FEE0F990BFC01EE0FFF1F11
:100D4000E80FF91FEE58FD4F808186FFC9CFE09173
:100D5000BA018E2FEE0F990BFC01EE0FFF1FE80F6B
:100D6000F91FEE58FD4F808160E08F730E942802CA
:100D7000B7CF2091840030918500E091BA018E2F89
:100D8000EE0F990BFC01EE0FFF1FE80FF91FEE5855
:100D9000FD4F81819281820F931F909389008093F0
:100DA0008800E091BA018E2FEE0F990BFC01EE0F37
:100DB000FF1FE80FF91FEE58FD4F808186FF11C01D
:100DC000E091BA018E2FEE0F990BFC01EE0FFF1F81
:100DD000E80FF91FEE58FD4F808161E08F730E948C
:100DE0002802FF91EF91DF91CF91BF91AF919F9139
:100DF0008F917F916F915F914F913F912F910F90C4
:100E00000FBE0F901F90189580E49CE99093890085
:100E1000809388008FEF8093BA01E3CF1092D801BE
:100E20001092D70188EE93E0A0E0B0E08093D90162
:100E30009093DA01A093DB01B093DC0180E791E0AD
:100E40009093D6018093D50185EC90E09093E201D8
:100E50008093E10184EC90E09093E4018093E301BE
:100E600080EC90E09093E6018093E50181EC90E0C6
:100E70009093E8018093E70182EC90E09093EA017F
:100E80008093E90186EC90E09093EC018093EB0174
:100E90001092EE011092EF011092F0011092F10108
:100EA000809196028C3038F591E0980F90939602DD
:100EB00080939F0290E0FC01EE0FFF1FE80FF91FE7
:100EC000EE58FD4F88EB9BE09283818384E090E0B5
:100ED00090939C0280939B0281E180939D0280E12C
:100EE00080939E0261E081E10E94820261E0809134
:100EF0009E020C9482028FEF80939F02E7CF78943A
:100F000084B5826084BD84B5816084BD85B582600E
:100F100085BD85B5816085BD80916E0081608093BF
:100F20006E00109281008091810082608093810028
:100F30008091810081608093810080918000816038
:100F4000809380008091B10084608093B100809193
:100F5000B00081608093B00080917A0084608093BB
:100F60007A0080917A00826080937A0080917A0082
:100F7000816080937A0080917A00806880937A0003
:100F80001092C100E091E501F091E60182E08083DA
:100F9000E091E101F091E2011082E091E301F09132
:100FA000E4018FEC80831092ED01E091E901F09172
:100FB000EA0186E08083E091E701F091E801808119
:100FC00080618083E091E701F091E8018081886091
:100FD0008083E091E701F091E8018081806880835F
:100FE000E091E701F091E80180818F7D808380911D
:100FF0009F028C3008F051C061E089E00E948202BB
:1010000080919F02282F30E0F901EE0FFF1FE20FC1
:10101000F31FEE58FD4F9081907C99609083109261
:10102000A0021092A1022CE0622F0E941C09829F54
:10103000B001112430E020E0AB01420F531FFA0150
:10104000EE0FFF1FE40FF51FEE58FD4F908196FD48
:1010500016C02F5F3F4F2C30310571F781110FC043
:101060001092800082E0809381001092850010929F
:101070008400B19A80916F00826080936F00E0914C
:101080009F028E2F90E0FC01EE0FFF1FE80FF91F6B
:10109000EE58FD4F8081806480836FE780E00E947E
:1010A00020046FE781E00E9420046FE782E00E9445
:1010B00020046FE783E00E94200480E4809397027D
:1010C00080EC809398028FE8809399026CE271E043
:1010D00080E090E00E94B30281E891E00E94110557
:1010E00090E080E00E948D0086E990E00E948D00F3
:1010F0008EE891E00E94110560E273E080E090E0EC
:101100000E94880486E990E00E948D0090E080E0D3
:101110000E948D0082EA91E00E94110560E273E076
:1011200080E090E00E94880484EB91E00E94BB0480
:1011300060E273E080E090E00E94880480E891E043
:101140000E94BB0468E572E080E090E00E948804A1
:1011500064EF71E080E090E00E94B302C0E0D0E074
:101160002097F1F30E945C018823D1F30E940000D4
:10117000F7CF052E97FB1EF400940E94D00857FD70
:1011800007D00E94EB0807FC03D04EF40C94D00863
:1011900050954095309521953F4F4F4F5F4F0895A3
:1011A00090958095709561957F4F8F4F9F4F0895D3
:1011B0000E940D09A59F900DB49F900DA49F800DD6
:1011C000911D11240895B7FF0C94D8080E94D808E7
:1011D000821B930B0895A1E21A2EAA1BBB1BFD01D3
:1011E0000DC0AA1FBB1FEE1FFF1FA217B307E40706
:1011F000F50720F0A21BB30BE40BF50B661F771F5E
:10120000881F991F1A9469F760957095809590953D
:101210009B01AC01BD01CF010895A29FB001B39F16
:10122000C001A39F700D811D1124911DB29F700DEF
:10123000811D1124911D0895991B79E004C0991F07
:10124000961708F0961B881F7A95C9F78095089520
:10125000EE0FFF1F0590F491E02D0994F894FFCF55
:10126000FF000000000000000000006300004000DC
:10127000000000000000000000000000000000006E
:101280000000777C395E79713576061E75383754E3
:101290005C737B506D781C3E7E766E1B00000001F7
:1012A00008005F7C585E79713574041675383754C0
:1012B0005C7367506D781C3E2A766E1B3F065B4F51
:1012C000666D7D077F6F777C395E79710000000065
:1012D0009201F2001F01DF0150012E0142010D0AAF
:1012E0000048656C6C6F204D4454212121005365EA
:1012F00072766F203A2031353020646567726565FB
:101300007300536572766F203A20302064656772EF
:0A13100065657300303030300000D6
:107E0000112484B714BE81FFF0D085E080938100F7
:107E100082E08093C00088E18093C10086E0809377
:107E2000C20080E18093C4008EE0C9D0259A86E02C
:107E300020E33CEF91E0309385002093840096BBD3
:107E4000B09BFECF1D9AA8958150A9F7CC24DD24C4
:107E500088248394B5E0AB2EA1E19A2EF3E0BF2EE7
:107E6000A2D0813461F49FD0082FAFD0023811F036
:107E7000013811F484E001C083E08DD089C08234E0
:107E800011F484E103C0853419F485E0A6D080C0E4
:107E9000853579F488D0E82EFF2485D0082F10E0AE
:107EA000102F00270E291F29000F111F8ED06801E7
:107EB0006FC0863521F484E090D080E0DECF843638
:107EC00009F040C070D06FD0082F6DD080E0C81688
:107ED00080E7D80618F4F601B7BEE895C0E0D1E017
:107EE00062D089930C17E1F7F0E0CF16F0E7DF06D8
:107EF00018F0F601B7BEE89568D007B600FCFDCFD4
:107F0000A601A0E0B1E02C9130E011968C91119780
:107F100090E0982F8827822B932B1296FA010C0160
:107F200087BEE89511244E5F5F4FF1E0A038BF0790
:107F300051F7F601A7BEE89507B600FCFDCF97BE46
:107F4000E89526C08437B1F42ED02DD0F82E2BD052
:107F50003CD0F601EF2C8F010F5F1F4F84911BD097
:107F6000EA94F801C1F70894C11CD11CFA94CF0C13
:107F7000D11C0EC0853739F428D08EE10CD085E9AC
:107F80000AD08FE07ACF813511F488E018D01DD067
:107F900080E101D065CF982F8091C00085FFFCCF94
:107FA0009093C60008958091C00087FFFCCF809118
:107FB000C00084FD01C0A8958091C6000895E0E648
:107FC000F0E098E1908380830895EDDF803219F02E
:107FD00088E0F5DFFFCF84E1DECF1F93182FE3DFCA
:107FE0001150E9F7F2DF1F91089580E0E8DFEE27F6
:047FF000FF270994CA
:027FFE00040479
:0400000300007E007B
:00000001FF
